{
  "address": "0xF8F283c5D2E8761F85Cb55A00fDcc1794a999ea1",
  "abi": [
    {
      "inputs": [
        {
          "internalType": "address",
          "name": "priceFeedAddress",
          "type": "address"
        },
        {
          "internalType": "string",
          "name": "lowSvg",
          "type": "string"
        },
        {
          "internalType": "string",
          "name": "highSvg",
          "type": "string"
        }
      ],
      "stateMutability": "nonpayable",
      "type": "constructor"
    },
    {
      "inputs": [],
      "name": "ERC721Metadata__URI_QueryFor_NonExistentToken",
      "type": "error"
    },
    {
      "anonymous": false,
      "inputs": [
        {
          "indexed": true,
          "internalType": "address",
          "name": "owner",
          "type": "address"
        },
        {
          "indexed": true,
          "internalType": "address",
          "name": "approved",
          "type": "address"
        },
        {
          "indexed": true,
          "internalType": "uint256",
          "name": "tokenId",
          "type": "uint256"
        }
      ],
      "name": "Approval",
      "type": "event"
    },
    {
      "anonymous": false,
      "inputs": [
        {
          "indexed": true,
          "internalType": "address",
          "name": "owner",
          "type": "address"
        },
        {
          "indexed": true,
          "internalType": "address",
          "name": "operator",
          "type": "address"
        },
        {
          "indexed": false,
          "internalType": "bool",
          "name": "approved",
          "type": "bool"
        }
      ],
      "name": "ApprovalForAll",
      "type": "event"
    },
    {
      "anonymous": false,
      "inputs": [
        {
          "indexed": true,
          "internalType": "uint256",
          "name": "tokenId",
          "type": "uint256"
        },
        {
          "indexed": false,
          "internalType": "int256",
          "name": "highValue",
          "type": "int256"
        }
      ],
      "name": "CreatedNFT",
      "type": "event"
    },
    {
      "anonymous": false,
      "inputs": [
        {
          "indexed": true,
          "internalType": "address",
          "name": "from",
          "type": "address"
        },
        {
          "indexed": true,
          "internalType": "address",
          "name": "to",
          "type": "address"
        },
        {
          "indexed": true,
          "internalType": "uint256",
          "name": "tokenId",
          "type": "uint256"
        }
      ],
      "name": "Transfer",
      "type": "event"
    },
    {
      "inputs": [
        {
          "internalType": "address",
          "name": "to",
          "type": "address"
        },
        {
          "internalType": "uint256",
          "name": "tokenId",
          "type": "uint256"
        }
      ],
      "name": "approve",
      "outputs": [],
      "stateMutability": "nonpayable",
      "type": "function"
    },
    {
      "inputs": [
        {
          "internalType": "address",
          "name": "owner",
          "type": "address"
        }
      ],
      "name": "balanceOf",
      "outputs": [
        {
          "internalType": "uint256",
          "name": "",
          "type": "uint256"
        }
      ],
      "stateMutability": "view",
      "type": "function"
    },
    {
      "inputs": [
        {
          "internalType": "uint256",
          "name": "tokenId",
          "type": "uint256"
        }
      ],
      "name": "getApproved",
      "outputs": [
        {
          "internalType": "address",
          "name": "",
          "type": "address"
        }
      ],
      "stateMutability": "view",
      "type": "function"
    },
    {
      "inputs": [
        {
          "internalType": "address",
          "name": "owner",
          "type": "address"
        },
        {
          "internalType": "address",
          "name": "operator",
          "type": "address"
        }
      ],
      "name": "isApprovedForAll",
      "outputs": [
        {
          "internalType": "bool",
          "name": "",
          "type": "bool"
        }
      ],
      "stateMutability": "view",
      "type": "function"
    },
    {
      "inputs": [
        {
          "internalType": "int256",
          "name": "highValue",
          "type": "int256"
        }
      ],
      "name": "mintNft",
      "outputs": [],
      "stateMutability": "nonpayable",
      "type": "function"
    },
    {
      "inputs": [],
      "name": "name",
      "outputs": [
        {
          "internalType": "string",
          "name": "",
          "type": "string"
        }
      ],
      "stateMutability": "view",
      "type": "function"
    },
    {
      "inputs": [
        {
          "internalType": "uint256",
          "name": "tokenId",
          "type": "uint256"
        }
      ],
      "name": "ownerOf",
      "outputs": [
        {
          "internalType": "address",
          "name": "",
          "type": "address"
        }
      ],
      "stateMutability": "view",
      "type": "function"
    },
    {
      "inputs": [
        {
          "internalType": "address",
          "name": "from",
          "type": "address"
        },
        {
          "internalType": "address",
          "name": "to",
          "type": "address"
        },
        {
          "internalType": "uint256",
          "name": "tokenId",
          "type": "uint256"
        }
      ],
      "name": "safeTransferFrom",
      "outputs": [],
      "stateMutability": "nonpayable",
      "type": "function"
    },
    {
      "inputs": [
        {
          "internalType": "address",
          "name": "from",
          "type": "address"
        },
        {
          "internalType": "address",
          "name": "to",
          "type": "address"
        },
        {
          "internalType": "uint256",
          "name": "tokenId",
          "type": "uint256"
        },
        {
          "internalType": "bytes",
          "name": "data",
          "type": "bytes"
        }
      ],
      "name": "safeTransferFrom",
      "outputs": [],
      "stateMutability": "nonpayable",
      "type": "function"
    },
    {
      "inputs": [
        {
          "internalType": "address",
          "name": "operator",
          "type": "address"
        },
        {
          "internalType": "bool",
          "name": "approved",
          "type": "bool"
        }
      ],
      "name": "setApprovalForAll",
      "outputs": [],
      "stateMutability": "nonpayable",
      "type": "function"
    },
    {
      "inputs": [
        {
          "internalType": "bytes4",
          "name": "interfaceId",
          "type": "bytes4"
        }
      ],
      "name": "supportsInterface",
      "outputs": [
        {
          "internalType": "bool",
          "name": "",
          "type": "bool"
        }
      ],
      "stateMutability": "view",
      "type": "function"
    },
    {
      "inputs": [
        {
          "internalType": "string",
          "name": "svg",
          "type": "string"
        }
      ],
      "name": "svgToImageURI",
      "outputs": [
        {
          "internalType": "string",
          "name": "",
          "type": "string"
        }
      ],
      "stateMutability": "pure",
      "type": "function"
    },
    {
      "inputs": [],
      "name": "symbol",
      "outputs": [
        {
          "internalType": "string",
          "name": "",
          "type": "string"
        }
      ],
      "stateMutability": "view",
      "type": "function"
    },
    {
      "inputs": [
        {
          "internalType": "uint256",
          "name": "tokenId",
          "type": "uint256"
        }
      ],
      "name": "tokenURI",
      "outputs": [
        {
          "internalType": "string",
          "name": "",
          "type": "string"
        }
      ],
      "stateMutability": "view",
      "type": "function"
    },
    {
      "inputs": [
        {
          "internalType": "address",
          "name": "from",
          "type": "address"
        },
        {
          "internalType": "address",
          "name": "to",
          "type": "address"
        },
        {
          "internalType": "uint256",
          "name": "tokenId",
          "type": "uint256"
        }
      ],
      "name": "transferFrom",
      "outputs": [],
      "stateMutability": "nonpayable",
      "type": "function"
    }
  ],
  "transactionHash": "0xa8542b276d2d096cdb5bb4f5f6812d9547dc26d8a74c59522fcd42b7a72980cc",
  "args": [
    "0xD4a33860578De61DBAbDc8BFdb98FD742fA7028e",
    "<?xml version=\"1.0\" standalone=\"no\"?>\n<svg width=\"1024px\" height=\"1024px\" viewBox=\"0 0 1024 1024\" xmlns=\"http://www.w3.org/2000/svg\">\n  <path fill=\"#333\" d=\"M512 64C264.6 64 64 264.6 64 512s200.6 448 448 448 448-200.6 448-448S759.4 64 512 64zm0 820c-205.4 0-372-166.6-372-372s166.6-372 372-372 372 166.6 372 372-166.6 372-372 372z\"/>\n  <path fill=\"#E6E6E6\" d=\"M512 140c-205.4 0-372 166.6-372 372s166.6 372 372 372 372-166.6 372-372-166.6-372-372-372zM288 421a48.01 48.01 0 0 1 96 0 48.01 48.01 0 0 1-96 0zm376 272h-48.1c-4.2 0-7.8-3.2-8.1-7.4C604 636.1 562.5 597 512 597s-92.1 39.1-95.8 88.6c-.3 4.2-3.9 7.4-8.1 7.4H360a8 8 0 0 1-8-8.4c4.4-84.3 74.5-151.6 160-151.6s155.6 67.3 160 151.6a8 8 0 0 1-8 8.4zm24-224a48.01 48.01 0 0 1 0-96 48.01 48.01 0 0 1 0 96z\"/>\n  <path fill=\"#333\" d=\"M288 421a48 48 0 1 0 96 0 48 48 0 1 0-96 0zm224 112c-85.5 0-155.6 67.3-160 151.6a8 8 0 0 0 8 8.4h48.1c4.2 0 7.8-3.2 8.1-7.4 3.7-49.5 45.3-88.6 95.8-88.6s92 39.1 95.8 88.6c.3 4.2 3.9 7.4 8.1 7.4H664a8 8 0 0 0 8-8.4C667.6 600.3 597.5 533 512 533zm128-112a48 48 0 1 0 96 0 48 48 0 1 0-96 0z\"/>\n</svg>\n",
    "<svg viewBox=\"0 0 200 200\" width=\"400\"  height=\"400\" xmlns=\"http://www.w3.org/2000/svg\">\n  <circle cx=\"100\" cy=\"100\" fill=\"yellow\" r=\"78\" stroke=\"black\" stroke-width=\"3\"/>\n  <g class=\"eyes\">\n    <circle cx=\"61\" cy=\"82\" r=\"12\"/>\n    <circle cx=\"127\" cy=\"82\" r=\"12\"/>\n  </g>\n  <path d=\"m136.81 116.53c.69 26.17-64.11 42-81.52-.73\" style=\"fill:none; stroke: black; stroke-width: 3;\"/>\n</svg>"
  ],
  "numDeployments": 1,
  "solcInputHash": "55572481e07ad235a53dcebb1c62d533",
  "bytecode": "0x60a06040523480156200001157600080fd5b50604051620039b6380380620039b683398181016040528101906200003791906200056d565b6040518060400160405280600f81526020017f44796e616d696320535647204e465400000000000000000000000000000000008152506040518060400160405280600381526020017f44534e00000000000000000000000000000000000000000000000000000000008152508160009081620000b4919062000852565b508060019081620000c6919062000852565b505050620000da826200014a60201b60201c565b60079081620000ea919062000852565b50620000fc816200014a60201b60201c565b600890816200010c919062000852565b508273ffffffffffffffffffffffffffffffffffffffff1660808173ffffffffffffffffffffffffffffffffffffffff168152505050505062000ad8565b6060600062000185836040516020016200016591906200097b565b604051602081830303815290604052620001e860201b62000cd01760201c565b90506040518060400160405280601a81526020017f646174613a696d6167652f7376672b786d6c3b6261736536342c00000000000081525081604051602001620001d192919062000994565b604051602081830303815290604052915050919050565b606060008251036200020c5760405180602001604052806000815250905062000370565b60006040518060600160405280604081526020016200397660409139905060006003600285516200023e9190620009eb565b6200024a919062000a55565b600462000258919062000a8d565b905060006020826200026b9190620009eb565b67ffffffffffffffff81111562000287576200028662000409565b5b6040519080825280601f01601f191660200182016040528015620002ba5781602001600182028036833780820191505090505b509050818152600183018586518101602084015b818310156200032b576003830192508251603f8160121c168501518253600182019150603f81600c1c168501518253600182019150603f8160061c168501518253600182019150603f8116850151825360018201915050620002ce565b600389510660018114620003485760028114620003595762000364565b613d3d60f01b600283035262000364565b603d60f81b60018303525b50505050508093505050505b919050565b6000604051905090565b600080fd5b600080fd5b600073ffffffffffffffffffffffffffffffffffffffff82169050919050565b6000620003b68262000389565b9050919050565b620003c881620003a9565b8114620003d457600080fd5b50565b600081519050620003e881620003bd565b92915050565b600080fd5b600080fd5b6000601f19601f8301169050919050565b7f4e487b7100000000000000000000000000000000000000000000000000000000600052604160045260246000fd5b6200044382620003f8565b810181811067ffffffffffffffff8211171562000465576200046462000409565b5b80604052505050565b60006200047a62000375565b905062000488828262000438565b919050565b600067ffffffffffffffff821115620004ab57620004aa62000409565b5b620004b682620003f8565b9050602081019050919050565b60005b83811015620004e3578082015181840152602081019050620004c6565b60008484015250505050565b60006200050662000500846200048d565b6200046e565b905082815260208101848484011115620005255762000524620003f3565b5b62000532848285620004c3565b509392505050565b600082601f830112620005525762000551620003ee565b5b815162000564848260208601620004ef565b91505092915050565b6000806000606084860312156200058957620005886200037f565b5b60006200059986828701620003d7565b935050602084015167ffffffffffffffff811115620005bd57620005bc62000384565b5b620005cb868287016200053a565b925050604084015167ffffffffffffffff811115620005ef57620005ee62000384565b5b620005fd868287016200053a565b9150509250925092565b600081519050919050565b7f4e487b7100000000000000000000000000000000000000000000000000000000600052602260045260246000fd5b600060028204905060018216806200065a57607f821691505b60208210810362000670576200066f62000612565b5b50919050565b60008190508160005260206000209050919050565b60006020601f8301049050919050565b600082821b905092915050565b600060088302620006da7fffffffffffffffffffffffffffffffffffffffffffffffffffffffffffffffff826200069b565b620006e686836200069b565b95508019841693508086168417925050509392505050565b6000819050919050565b6000819050919050565b6000620007336200072d6200072784620006fe565b62000708565b620006fe565b9050919050565b6000819050919050565b6200074f8362000712565b620007676200075e826200073a565b848454620006a8565b825550505050565b600090565b6200077e6200076f565b6200078b81848462000744565b505050565b5b81811015620007b357620007a760008262000774565b60018101905062000791565b5050565b601f8211156200080257620007cc8162000676565b620007d7846200068b565b81016020851015620007e7578190505b620007ff620007f6856200068b565b83018262000790565b50505b505050565b600082821c905092915050565b6000620008276000198460080262000807565b1980831691505092915050565b600062000842838362000814565b9150826002028217905092915050565b6200085d8262000607565b67ffffffffffffffff81111562000879576200087862000409565b5b62000885825462000641565b62000892828285620007b7565b600060209050601f831160018114620008ca5760008415620008b5578287015190505b620008c1858262000834565b86555062000931565b601f198416620008da8662000676565b60005b828110156200090457848901518255600182019150602085019450602081019050620008dd565b8683101562000924578489015162000920601f89168262000814565b8355505b6001600288020188555050505b505050505050565b600081905092915050565b6000620009518262000607565b6200095d818562000939565b93506200096f818560208601620004c3565b80840191505092915050565b600062000989828462000944565b915081905092915050565b6000620009a2828562000944565b9150620009b0828462000944565b91508190509392505050565b7f4e487b7100000000000000000000000000000000000000000000000000000000600052601160045260246000fd5b6000620009f882620006fe565b915062000a0583620006fe565b925082820190508082111562000a205762000a1f620009bc565b5b92915050565b7f4e487b7100000000000000000000000000000000000000000000000000000000600052601260045260246000fd5b600062000a6282620006fe565b915062000a6f83620006fe565b92508262000a825762000a8162000a26565b5b828204905092915050565b600062000a9a82620006fe565b915062000aa783620006fe565b925082820262000ab781620006fe565b9150828204841483151762000ad15762000ad0620009bc565b5b5092915050565b608051612e8262000af46000396000610a100152612e826000f3fe608060405234801561001057600080fd5b50600436106100f55760003560e01c806342842e0e11610097578063a22cb46511610066578063a22cb46514610296578063b88d4fde146102b2578063c87b56dd146102ce578063e985e9c5146102fe576100f5565b806342842e0e146101fc5780636352211e1461021857806370a082311461024857806395d89b4114610278576100f5565b8063095ea7b3116100d3578063095ea7b3146101785780631e9308121461019457806323b872dd146101b057806330d871c6146101cc576100f5565b806301ffc9a7146100fa57806306fdde031461012a578063081812fc14610148575b600080fd5b610114600480360381019061010f9190611ba7565b61032e565b6040516101219190611bef565b60405180910390f35b610132610410565b60405161013f9190611c9a565b60405180910390f35b610162600480360381019061015d9190611cf2565b6104a2565b60405161016f9190611d60565b60405180910390f35b610192600480360381019061018d9190611da7565b6104e8565b005b6101ae60048036038101906101a99190611e1d565b6105ff565b005b6101ca60048036038101906101c59190611e4a565b610677565b005b6101e660048036038101906101e19190611fd2565b6106d7565b6040516101f39190611c9a565b60405180910390f35b61021660048036038101906102119190611e4a565b610764565b005b610232600480360381019061022d9190611cf2565b610784565b60405161023f9190611d60565b60405180910390f35b610262600480360381019061025d919061201b565b61080a565b60405161026f9190612057565b60405180910390f35b6102806108c1565b60405161028d9190611c9a565b60405180910390f35b6102b060048036038101906102ab919061209e565b610953565b005b6102cc60048036038101906102c7919061217f565b610969565b005b6102e860048036038101906102e39190611cf2565b6109cb565b6040516102f59190611c9a565b60405180910390f35b61031860048036038101906103139190612202565b610c3c565b6040516103259190611bef565b60405180910390f35b60007f80ac58cd000000000000000000000000000000000000000000000000000000007bffffffffffffffffffffffffffffffffffffffffffffffffffffffff1916827bffffffffffffffffffffffffffffffffffffffffffffffffffffffff191614806103f957507f5b5e139f000000000000000000000000000000000000000000000000000000007bffffffffffffffffffffffffffffffffffffffffffffffffffffffff1916827bffffffffffffffffffffffffffffffffffffffffffffffffffffffff1916145b80610409575061040882610e48565b5b9050919050565b60606000805461041f90612271565b80601f016020809104026020016040519081016040528092919081815260200182805461044b90612271565b80156104985780601f1061046d57610100808354040283529160200191610498565b820191906000526020600020905b81548152906001019060200180831161047b57829003601f168201915b5050505050905090565b60006104ad82610eb2565b6004600083815260200190815260200160002060009054906101000a900473ffffffffffffffffffffffffffffffffffffffff169050919050565b60006104f382610784565b90508073ffffffffffffffffffffffffffffffffffffffff168373ffffffffffffffffffffffffffffffffffffffff1603610563576040517f08c379a000000000000000000000000000000000000000000000000000000000815260040161055a90612314565b60405180910390fd5b8073ffffffffffffffffffffffffffffffffffffffff16610582610efd565b73ffffffffffffffffffffffffffffffffffffffff1614806105b157506105b0816105ab610efd565b610c3c565b5b6105f0576040517f08c379a00000000000000000000000000000000000000000000000000000000081526004016105e7906123a6565b60405180910390fd5b6105fa8383610f05565b505050565b806009600060065481526020019081526020016000208190555061062533600654610fbe565b600160065461063491906123f5565b6006819055506006547f882d3b5a729a8bb95cf6c0083c99b42ecd9637123d4425bd7b768877fd8af8b08260405161066c9190612438565b60405180910390a250565b610688610682610efd565b82610fdc565b6106c7576040517f08c379a00000000000000000000000000000000000000000000000000000000081526004016106be906124c5565b60405180910390fd5b6106d2838383611071565b505050565b60606000610703836040516020016106ef9190612521565b604051602081830303815290604052610cd0565b90506040518060400160405280601a81526020017f646174613a696d6167652f7376672b786d6c3b6261736536342c0000000000008152508160405160200161074d929190612538565b604051602081830303815290604052915050919050565b61077f83838360405180602001604052806000815250610969565b505050565b6000806107908361136a565b9050600073ffffffffffffffffffffffffffffffffffffffff168173ffffffffffffffffffffffffffffffffffffffff1603610801576040517f08c379a00000000000000000000000000000000000000000000000000000000081526004016107f8906125a8565b60405180910390fd5b80915050919050565b60008073ffffffffffffffffffffffffffffffffffffffff168273ffffffffffffffffffffffffffffffffffffffff160361087a576040517f08c379a00000000000000000000000000000000000000000000000000000000081526004016108719061263a565b60405180910390fd5b600360008373ffffffffffffffffffffffffffffffffffffffff1673ffffffffffffffffffffffffffffffffffffffff168152602001908152602001600020549050919050565b6060600180546108d090612271565b80601f01602080910402602001604051908101604052809291908181526020018280546108fc90612271565b80156109495780601f1061091e57610100808354040283529160200191610949565b820191906000526020600020905b81548152906001019060200180831161092c57829003601f168201915b5050505050905090565b61096561095e610efd565b83836113a7565b5050565b61097a610974610efd565b83610fdc565b6109b9576040517f08c379a00000000000000000000000000000000000000000000000000000000081526004016109b0906124c5565b60405180910390fd5b6109c584848484611513565b50505050565b60606109d68261156f565b610a0c576040517f6df5edae00000000000000000000000000000000000000000000000000000000815260040160405180910390fd5b60007f000000000000000000000000000000000000000000000000000000000000000073ffffffffffffffffffffffffffffffffffffffff1663feaf968c6040518163ffffffff1660e01b815260040160a060405180830381865afa158015610a79573d6000803e3d6000fd5b505050506040513d601f19601f82011682018060405250810190610a9d91906126c6565b505050915050600060078054610ab290612271565b80601f0160208091040260200160405190810160405280929190818152602001828054610ade90612271565b8015610b2b5780601f10610b0057610100808354040283529160200191610b2b565b820191906000526020600020905b815481529060010190602001808311610b0e57829003601f168201915b5050505050905060096000858152602001908152602001600020548212610bda5760088054610b5990612271565b80601f0160208091040260200160405190810160405280929190818152602001828054610b8590612271565b8015610bd25780601f10610ba757610100808354040283529160200191610bd2565b820191906000526020600020905b815481529060010190602001808311610bb557829003601f168201915b505050505090505b610be26115b0565b610c13610bed610410565b83604051602001610bff929190612909565b604051602081830303815290604052610cd0565b604051602001610c24929190612538565b60405160208183030381529060405292505050919050565b6000600560008473ffffffffffffffffffffffffffffffffffffffff1673ffffffffffffffffffffffffffffffffffffffff16815260200190815260200160002060008373ffffffffffffffffffffffffffffffffffffffff1673ffffffffffffffffffffffffffffffffffffffff16815260200190815260200160002060009054906101000a900460ff16905092915050565b60606000825103610cf257604051806020016040528060008152509050610e43565b6000604051806060016040528060408152602001612e0d6040913990506000600360028551610d2191906123f5565b610d2b9190612988565b6004610d3791906129b9565b90506000602082610d4891906123f5565b67ffffffffffffffff811115610d6157610d60611ea7565b5b6040519080825280601f01601f191660200182016040528015610d935781602001600182028036833780820191505090505b509050818152600183018586518101602084015b81831015610e02576003830192508251603f8160121c168501518253600182019150603f81600c1c168501518253600182019150603f8160061c168501518253600182019150603f8116850151825360018201915050610da7565b600389510660018114610e1c5760028114610e2c57610e37565b613d3d60f01b6002830352610e37565b603d60f81b60018303525b50505050508093505050505b919050565b60007f01ffc9a7000000000000000000000000000000000000000000000000000000007bffffffffffffffffffffffffffffffffffffffffffffffffffffffff1916827bffffffffffffffffffffffffffffffffffffffffffffffffffffffff1916149050919050565b610ebb8161156f565b610efa576040517f08c379a0000000000000000000000000000000000000000000000000000000008152600401610ef1906125a8565b60405180910390fd5b50565b600033905090565b816004600083815260200190815260200160002060006101000a81548173ffffffffffffffffffffffffffffffffffffffff021916908373ffffffffffffffffffffffffffffffffffffffff160217905550808273ffffffffffffffffffffffffffffffffffffffff16610f7883610784565b73ffffffffffffffffffffffffffffffffffffffff167f8c5be1e5ebec7d5bd14f71427d1e84f3dd0314c0f7b2291e5b200ac8c7c3b92560405160405180910390a45050565b610fd88282604051806020016040528060008152506115ed565b5050565b600080610fe883610784565b90508073ffffffffffffffffffffffffffffffffffffffff168473ffffffffffffffffffffffffffffffffffffffff16148061102a57506110298185610c3c565b5b8061106857508373ffffffffffffffffffffffffffffffffffffffff16611050846104a2565b73ffffffffffffffffffffffffffffffffffffffff16145b91505092915050565b8273ffffffffffffffffffffffffffffffffffffffff1661109182610784565b73ffffffffffffffffffffffffffffffffffffffff16146110e7576040517f08c379a00000000000000000000000000000000000000000000000000000000081526004016110de90612a6d565b60405180910390fd5b600073ffffffffffffffffffffffffffffffffffffffff168273ffffffffffffffffffffffffffffffffffffffff1603611156576040517f08c379a000000000000000000000000000000000000000000000000000000000815260040161114d90612aff565b60405180910390fd5b6111638383836001611648565b8273ffffffffffffffffffffffffffffffffffffffff1661118382610784565b73ffffffffffffffffffffffffffffffffffffffff16146111d9576040517f08c379a00000000000000000000000000000000000000000000000000000000081526004016111d090612a6d565b60405180910390fd5b6004600082815260200190815260200160002060006101000a81549073ffffffffffffffffffffffffffffffffffffffff02191690556001600360008573ffffffffffffffffffffffffffffffffffffffff1673ffffffffffffffffffffffffffffffffffffffff168152602001908152602001600020600082825403925050819055506001600360008473ffffffffffffffffffffffffffffffffffffffff1673ffffffffffffffffffffffffffffffffffffffff16815260200190815260200160002060008282540192505081905550816002600083815260200190815260200160002060006101000a81548173ffffffffffffffffffffffffffffffffffffffff021916908373ffffffffffffffffffffffffffffffffffffffff160217905550808273ffffffffffffffffffffffffffffffffffffffff168473ffffffffffffffffffffffffffffffffffffffff167fddf252ad1be2c89b69c2b068fc378daa952ba7f163c4a11628f55a4df523b3ef60405160405180910390a4611365838383600161176e565b505050565b60006002600083815260200190815260200160002060009054906101000a900473ffffffffffffffffffffffffffffffffffffffff169050919050565b8173ffffffffffffffffffffffffffffffffffffffff168373ffffffffffffffffffffffffffffffffffffffff1603611415576040517f08c379a000000000000000000000000000000000000000000000000000000000815260040161140c90612b6b565b60405180910390fd5b80600560008573ffffffffffffffffffffffffffffffffffffffff1673ffffffffffffffffffffffffffffffffffffffff16815260200190815260200160002060008473ffffffffffffffffffffffffffffffffffffffff1673ffffffffffffffffffffffffffffffffffffffff16815260200190815260200160002060006101000a81548160ff0219169083151502179055508173ffffffffffffffffffffffffffffffffffffffff168373ffffffffffffffffffffffffffffffffffffffff167f17307eab39ab6107e8899845ad3d59bd9653f200f220920489ca2b5937696c31836040516115069190611bef565b60405180910390a3505050565b61151e848484611071565b61152a84848484611774565b611569576040517f08c379a000000000000000000000000000000000000000000000000000000000815260040161156090612bfd565b60405180910390fd5b50505050565b60008073ffffffffffffffffffffffffffffffffffffffff166115918361136a565b73ffffffffffffffffffffffffffffffffffffffff1614159050919050565b60606040518060400160405280601d81526020017f646174613a6170706c69636174696f6e2f6a736f6e3b6261736536342c000000815250905090565b6115f783836118fb565b6116046000848484611774565b611643576040517f08c379a000000000000000000000000000000000000000000000000000000000815260040161163a90612bfd565b60405180910390fd5b505050565b600181111561176857600073ffffffffffffffffffffffffffffffffffffffff168473ffffffffffffffffffffffffffffffffffffffff16146116dc5780600360008673ffffffffffffffffffffffffffffffffffffffff1673ffffffffffffffffffffffffffffffffffffffff16815260200190815260200160002060008282546116d49190612c1d565b925050819055505b600073ffffffffffffffffffffffffffffffffffffffff168373ffffffffffffffffffffffffffffffffffffffff16146117675780600360008573ffffffffffffffffffffffffffffffffffffffff1673ffffffffffffffffffffffffffffffffffffffff168152602001908152602001600020600082825461175f91906123f5565b925050819055505b5b50505050565b50505050565b60006117958473ffffffffffffffffffffffffffffffffffffffff16611b18565b156118ee578373ffffffffffffffffffffffffffffffffffffffff1663150b7a026117be610efd565b8786866040518563ffffffff1660e01b81526004016117e09493929190612ca6565b6020604051808303816000875af192505050801561181c57506040513d601f19601f820116820180604052508101906118199190612d07565b60015b61189e573d806000811461184c576040519150601f19603f3d011682016040523d82523d6000602084013e611851565b606091505b506000815103611896576040517f08c379a000000000000000000000000000000000000000000000000000000000815260040161188d90612bfd565b60405180910390fd5b805181602001fd5b63150b7a0260e01b7bffffffffffffffffffffffffffffffffffffffffffffffffffffffff1916817bffffffffffffffffffffffffffffffffffffffffffffffffffffffff1916149150506118f3565b600190505b949350505050565b600073ffffffffffffffffffffffffffffffffffffffff168273ffffffffffffffffffffffffffffffffffffffff160361196a576040517f08c379a000000000000000000000000000000000000000000000000000000000815260040161196190612d80565b60405180910390fd5b6119738161156f565b156119b3576040517f08c379a00000000000000000000000000000000000000000000000000000000081526004016119aa90612dec565b60405180910390fd5b6119c1600083836001611648565b6119ca8161156f565b15611a0a576040517f08c379a0000000000000000000000000000000000000000000000000000000008152600401611a0190612dec565b60405180910390fd5b6001600360008473ffffffffffffffffffffffffffffffffffffffff1673ffffffffffffffffffffffffffffffffffffffff16815260200190815260200160002060008282540192505081905550816002600083815260200190815260200160002060006101000a81548173ffffffffffffffffffffffffffffffffffffffff021916908373ffffffffffffffffffffffffffffffffffffffff160217905550808273ffffffffffffffffffffffffffffffffffffffff16600073ffffffffffffffffffffffffffffffffffffffff167fddf252ad1be2c89b69c2b068fc378daa952ba7f163c4a11628f55a4df523b3ef60405160405180910390a4611b1460008383600161176e565b5050565b6000808273ffffffffffffffffffffffffffffffffffffffff163b119050919050565b6000604051905090565b600080fd5b600080fd5b60007fffffffff0000000000000000000000000000000000000000000000000000000082169050919050565b611b8481611b4f565b8114611b8f57600080fd5b50565b600081359050611ba181611b7b565b92915050565b600060208284031215611bbd57611bbc611b45565b5b6000611bcb84828501611b92565b91505092915050565b60008115159050919050565b611be981611bd4565b82525050565b6000602082019050611c046000830184611be0565b92915050565b600081519050919050565b600082825260208201905092915050565b60005b83811015611c44578082015181840152602081019050611c29565b60008484015250505050565b6000601f19601f8301169050919050565b6000611c6c82611c0a565b611c768185611c15565b9350611c86818560208601611c26565b611c8f81611c50565b840191505092915050565b60006020820190508181036000830152611cb48184611c61565b905092915050565b6000819050919050565b611ccf81611cbc565b8114611cda57600080fd5b50565b600081359050611cec81611cc6565b92915050565b600060208284031215611d0857611d07611b45565b5b6000611d1684828501611cdd565b91505092915050565b600073ffffffffffffffffffffffffffffffffffffffff82169050919050565b6000611d4a82611d1f565b9050919050565b611d5a81611d3f565b82525050565b6000602082019050611d756000830184611d51565b92915050565b611d8481611d3f565b8114611d8f57600080fd5b50565b600081359050611da181611d7b565b92915050565b60008060408385031215611dbe57611dbd611b45565b5b6000611dcc85828601611d92565b9250506020611ddd85828601611cdd565b9150509250929050565b6000819050919050565b611dfa81611de7565b8114611e0557600080fd5b50565b600081359050611e1781611df1565b92915050565b600060208284031215611e3357611e32611b45565b5b6000611e4184828501611e08565b91505092915050565b600080600060608486031215611e6357611e62611b45565b5b6000611e7186828701611d92565b9350506020611e8286828701611d92565b9250506040611e9386828701611cdd565b9150509250925092565b600080fd5b600080fd5b7f4e487b7100000000000000000000000000000000000000000000000000000000600052604160045260246000fd5b611edf82611c50565b810181811067ffffffffffffffff82111715611efe57611efd611ea7565b5b80604052505050565b6000611f11611b3b565b9050611f1d8282611ed6565b919050565b600067ffffffffffffffff821115611f3d57611f3c611ea7565b5b611f4682611c50565b9050602081019050919050565b82818337600083830152505050565b6000611f75611f7084611f22565b611f07565b905082815260208101848484011115611f9157611f90611ea2565b5b611f9c848285611f53565b509392505050565b600082601f830112611fb957611fb8611e9d565b5b8135611fc9848260208601611f62565b91505092915050565b600060208284031215611fe857611fe7611b45565b5b600082013567ffffffffffffffff81111561200657612005611b4a565b5b61201284828501611fa4565b91505092915050565b60006020828403121561203157612030611b45565b5b600061203f84828501611d92565b91505092915050565b61205181611cbc565b82525050565b600060208201905061206c6000830184612048565b92915050565b61207b81611bd4565b811461208657600080fd5b50565b60008135905061209881612072565b92915050565b600080604083850312156120b5576120b4611b45565b5b60006120c385828601611d92565b92505060206120d485828601612089565b9150509250929050565b600067ffffffffffffffff8211156120f9576120f8611ea7565b5b61210282611c50565b9050602081019050919050565b600061212261211d846120de565b611f07565b90508281526020810184848401111561213e5761213d611ea2565b5b612149848285611f53565b509392505050565b600082601f83011261216657612165611e9d565b5b813561217684826020860161210f565b91505092915050565b6000806000806080858703121561219957612198611b45565b5b60006121a787828801611d92565b94505060206121b887828801611d92565b93505060406121c987828801611cdd565b925050606085013567ffffffffffffffff8111156121ea576121e9611b4a565b5b6121f687828801612151565b91505092959194509250565b6000806040838503121561221957612218611b45565b5b600061222785828601611d92565b925050602061223885828601611d92565b9150509250929050565b7f4e487b7100000000000000000000000000000000000000000000000000000000600052602260045260246000fd5b6000600282049050600182168061228957607f821691505b60208210810361229c5761229b612242565b5b50919050565b7f4552433732313a20617070726f76616c20746f2063757272656e74206f776e6560008201527f7200000000000000000000000000000000000000000000000000000000000000602082015250565b60006122fe602183611c15565b9150612309826122a2565b604082019050919050565b6000602082019050818103600083015261232d816122f1565b9050919050565b7f4552433732313a20617070726f76652063616c6c6572206973206e6f7420746f60008201527f6b656e206f776e6572206f7220617070726f76656420666f7220616c6c000000602082015250565b6000612390603d83611c15565b915061239b82612334565b604082019050919050565b600060208201905081810360008301526123bf81612383565b9050919050565b7f4e487b7100000000000000000000000000000000000000000000000000000000600052601160045260246000fd5b600061240082611cbc565b915061240b83611cbc565b9250828201905080821115612423576124226123c6565b5b92915050565b61243281611de7565b82525050565b600060208201905061244d6000830184612429565b92915050565b7f4552433732313a2063616c6c6572206973206e6f7420746f6b656e206f776e6560008201527f72206f7220617070726f76656400000000000000000000000000000000000000602082015250565b60006124af602d83611c15565b91506124ba82612453565b604082019050919050565b600060208201905081810360008301526124de816124a2565b9050919050565b600081905092915050565b60006124fb82611c0a565b61250581856124e5565b9350612515818560208601611c26565b80840191505092915050565b600061252d82846124f0565b915081905092915050565b600061254482856124f0565b915061255082846124f0565b91508190509392505050565b7f4552433732313a20696e76616c696420746f6b656e2049440000000000000000600082015250565b6000612592601883611c15565b915061259d8261255c565b602082019050919050565b600060208201905081810360008301526125c181612585565b9050919050565b7f4552433732313a2061646472657373207a65726f206973206e6f74206120766160008201527f6c6964206f776e65720000000000000000000000000000000000000000000000602082015250565b6000612624602983611c15565b915061262f826125c8565b604082019050919050565b6000602082019050818103600083015261265381612617565b9050919050565b600069ffffffffffffffffffff82169050919050565b6126798161265a565b811461268457600080fd5b50565b60008151905061269681612670565b92915050565b6000815190506126ab81611df1565b92915050565b6000815190506126c081611cc6565b92915050565b600080600080600060a086880312156126e2576126e1611b45565b5b60006126f088828901612687565b95505060206127018882890161269c565b9450506040612712888289016126b1565b9350506060612723888289016126b1565b925050608061273488828901612687565b9150509295509295909350565b7f7b226e616d65223a220000000000000000000000000000000000000000000000600082015250565b60006127776009836124e5565b915061278282612741565b600982019050919050565b7f222c20226465736372697074696f6e223a22416e204e4654207468617420636860008201527f616e676573206261736564206f6e2074686520436861696e6c696e6b2046656560208201527f64222c2000000000000000000000000000000000000000000000000000000000604082015250565b600061280f6044836124e5565b915061281a8261278d565b604482019050919050565b7f2261747472696275746573223a205b7b2274726169745f74797065223a20226360008201527f6f6f6c6e657373222c202276616c7565223a203130307d5d2c2022696d61676560208201527f223a220000000000000000000000000000000000000000000000000000000000604082015250565b60006128a76043836124e5565b91506128b282612825565b604382019050919050565b7f227d000000000000000000000000000000000000000000000000000000000000600082015250565b60006128f36002836124e5565b91506128fe826128bd565b600282019050919050565b60006129148261276a565b915061292082856124f0565b915061292b82612802565b91506129368261289a565b915061294282846124f0565b915061294d826128e6565b91508190509392505050565b7f4e487b7100000000000000000000000000000000000000000000000000000000600052601260045260246000fd5b600061299382611cbc565b915061299e83611cbc565b9250826129ae576129ad612959565b5b828204905092915050565b60006129c482611cbc565b91506129cf83611cbc565b92508282026129dd81611cbc565b915082820484148315176129f4576129f36123c6565b5b5092915050565b7f4552433732313a207472616e736665722066726f6d20696e636f72726563742060008201527f6f776e6572000000000000000000000000000000000000000000000000000000602082015250565b6000612a57602583611c15565b9150612a62826129fb565b604082019050919050565b60006020820190508181036000830152612a8681612a4a565b9050919050565b7f4552433732313a207472616e7366657220746f20746865207a65726f2061646460008201527f7265737300000000000000000000000000000000000000000000000000000000602082015250565b6000612ae9602483611c15565b9150612af482612a8d565b604082019050919050565b60006020820190508181036000830152612b1881612adc565b9050919050565b7f4552433732313a20617070726f766520746f2063616c6c657200000000000000600082015250565b6000612b55601983611c15565b9150612b6082612b1f565b602082019050919050565b60006020820190508181036000830152612b8481612b48565b9050919050565b7f4552433732313a207472616e7366657220746f206e6f6e20455243373231526560008201527f63656976657220696d706c656d656e7465720000000000000000000000000000602082015250565b6000612be7603283611c15565b9150612bf282612b8b565b604082019050919050565b60006020820190508181036000830152612c1681612bda565b9050919050565b6000612c2882611cbc565b9150612c3383611cbc565b9250828203905081811115612c4b57612c4a6123c6565b5b92915050565b600081519050919050565b600082825260208201905092915050565b6000612c7882612c51565b612c828185612c5c565b9350612c92818560208601611c26565b612c9b81611c50565b840191505092915050565b6000608082019050612cbb6000830187611d51565b612cc86020830186611d51565b612cd56040830185612048565b8181036060830152612ce78184612c6d565b905095945050505050565b600081519050612d0181611b7b565b92915050565b600060208284031215612d1d57612d1c611b45565b5b6000612d2b84828501612cf2565b91505092915050565b7f4552433732313a206d696e7420746f20746865207a65726f2061646472657373600082015250565b6000612d6a602083611c15565b9150612d7582612d34565b602082019050919050565b60006020820190508181036000830152612d9981612d5d565b9050919050565b7f4552433732313a20746f6b656e20616c7265616479206d696e74656400000000600082015250565b6000612dd6601c83611c15565b9150612de182612da0565b602082019050919050565b60006020820190508181036000830152612e0581612dc9565b905091905056fe4142434445464748494a4b4c4d4e4f505152535455565758595a6162636465666768696a6b6c6d6e6f707172737475767778797a303132333435363738392b2fa26469706673582212209c0b675b1a1ccd5a5d81a98cfb1129798b85c1505e4acd25abaee91b1637fc6d64736f6c634300081100334142434445464748494a4b4c4d4e4f505152535455565758595a6162636465666768696a6b6c6d6e6f707172737475767778797a303132333435363738392b2f",
  "devdoc": {
    "kind": "dev",
    "methods": {
      "approve(address,uint256)": {
        "details": "See {IERC721-approve}."
      },
      "balanceOf(address)": {
        "details": "See {IERC721-balanceOf}."
      },
      "getApproved(uint256)": {
        "details": "See {IERC721-getApproved}."
      },
      "isApprovedForAll(address,address)": {
        "details": "See {IERC721-isApprovedForAll}."
      },
      "name()": {
        "details": "See {IERC721Metadata-name}."
      },
      "ownerOf(uint256)": {
        "details": "See {IERC721-ownerOf}."
      },
      "safeTransferFrom(address,address,uint256)": {
        "details": "See {IERC721-safeTransferFrom}."
      },
      "safeTransferFrom(address,address,uint256,bytes)": {
        "details": "See {IERC721-safeTransferFrom}."
      },
      "setApprovalForAll(address,bool)": {
        "details": "See {IERC721-setApprovalForAll}."
      },
      "supportsInterface(bytes4)": {
        "details": "See {IERC165-supportsInterface}."
      },
      "symbol()": {
        "details": "See {IERC721Metadata-symbol}."
      },
      "tokenURI(uint256)": {
        "details": "See {IERC721Metadata-tokenURI}."
      },
      "transferFrom(address,address,uint256)": {
        "details": "See {IERC721-transferFrom}."
      }
    },
    "version": 1
  },
  "userdoc": {
    "kind": "user",
    "methods": {},
    "version": 1
  },
  "storageLayout": {
    "storage": [
      {
        "astId": 1296,
        "contract": "contracts/DynamicSvgNft.sol:DynamicSvgNft",
        "label": "_name",
        "offset": 0,
        "slot": "0",
        "type": "t_string_storage"
      },
      {
        "astId": 1298,
        "contract": "contracts/DynamicSvgNft.sol:DynamicSvgNft",
        "label": "_symbol",
        "offset": 0,
        "slot": "1",
        "type": "t_string_storage"
      },
      {
        "astId": 1302,
        "contract": "contracts/DynamicSvgNft.sol:DynamicSvgNft",
        "label": "_owners",
        "offset": 0,
        "slot": "2",
        "type": "t_mapping(t_uint256,t_address)"
      },
      {
        "astId": 1306,
        "contract": "contracts/DynamicSvgNft.sol:DynamicSvgNft",
        "label": "_balances",
        "offset": 0,
        "slot": "3",
        "type": "t_mapping(t_address,t_uint256)"
      },
      {
        "astId": 1310,
        "contract": "contracts/DynamicSvgNft.sol:DynamicSvgNft",
        "label": "_tokenApprovals",
        "offset": 0,
        "slot": "4",
        "type": "t_mapping(t_uint256,t_address)"
      },
      {
        "astId": 1316,
        "contract": "contracts/DynamicSvgNft.sol:DynamicSvgNft",
        "label": "_operatorApprovals",
        "offset": 0,
        "slot": "5",
        "type": "t_mapping(t_address,t_mapping(t_address,t_bool))"
      },
      {
        "astId": 4113,
        "contract": "contracts/DynamicSvgNft.sol:DynamicSvgNft",
        "label": "s_tokenCounter",
        "offset": 0,
        "slot": "6",
        "type": "t_uint256"
      },
      {
        "astId": 4115,
        "contract": "contracts/DynamicSvgNft.sol:DynamicSvgNft",
        "label": "s_lowImageURI",
        "offset": 0,
        "slot": "7",
        "type": "t_string_storage"
      },
      {
        "astId": 4117,
        "contract": "contracts/DynamicSvgNft.sol:DynamicSvgNft",
        "label": "s_highImageURI",
        "offset": 0,
        "slot": "8",
        "type": "t_string_storage"
      },
      {
        "astId": 4127,
        "contract": "contracts/DynamicSvgNft.sol:DynamicSvgNft",
        "label": "s_tokenIdToHighValues",
        "offset": 0,
        "slot": "9",
        "type": "t_mapping(t_uint256,t_int256)"
      }
    ],
    "types": {
      "t_address": {
        "encoding": "inplace",
        "label": "address",
        "numberOfBytes": "20"
      },
      "t_bool": {
        "encoding": "inplace",
        "label": "bool",
        "numberOfBytes": "1"
      },
      "t_int256": {
        "encoding": "inplace",
        "label": "int256",
        "numberOfBytes": "32"
      },
      "t_mapping(t_address,t_bool)": {
        "encoding": "mapping",
        "key": "t_address",
        "label": "mapping(address => bool)",
        "numberOfBytes": "32",
        "value": "t_bool"
      },
      "t_mapping(t_address,t_mapping(t_address,t_bool))": {
        "encoding": "mapping",
        "key": "t_address",
        "label": "mapping(address => mapping(address => bool))",
        "numberOfBytes": "32",
        "value": "t_mapping(t_address,t_bool)"
      },
      "t_mapping(t_address,t_uint256)": {
        "encoding": "mapping",
        "key": "t_address",
        "label": "mapping(address => uint256)",
        "numberOfBytes": "32",
        "value": "t_uint256"
      },
      "t_mapping(t_uint256,t_address)": {
        "encoding": "mapping",
        "key": "t_uint256",
        "label": "mapping(uint256 => address)",
        "numberOfBytes": "32",
        "value": "t_address"
      },
      "t_mapping(t_uint256,t_int256)": {
        "encoding": "mapping",
        "key": "t_uint256",
        "label": "mapping(uint256 => int256)",
        "numberOfBytes": "32",
        "value": "t_int256"
      },
      "t_string_storage": {
        "encoding": "bytes",
        "label": "string",
        "numberOfBytes": "32"
      },
      "t_uint256": {
        "encoding": "inplace",
        "label": "uint256",
        "numberOfBytes": "32"
      }
    }
  }
}