{
  "address": "0x465Ee6440E05A5C5AAcAA22b17103e0b6d073611",
  "abi": [
    {
      "inputs": [
        {
          "internalType": "address",
          "name": "vrfCoordinator",
          "type": "address"
        },
        {
          "internalType": "uint64",
          "name": "subscriptionId",
          "type": "uint64"
        },
        {
          "internalType": "bytes32",
          "name": "gasLane",
          "type": "bytes32"
        },
        {
          "internalType": "uint256",
          "name": "mintFee",
          "type": "uint256"
        },
        {
          "internalType": "uint32",
          "name": "callbackGasLimit",
          "type": "uint32"
        },
        {
          "internalType": "string[3]",
          "name": "dogTokenUris",
          "type": "string[3]"
        }
      ],
      "stateMutability": "nonpayable",
      "type": "constructor"
    },
    {
      "inputs": [
        {
          "internalType": "address",
          "name": "have",
          "type": "address"
        },
        {
          "internalType": "address",
          "name": "want",
          "type": "address"
        }
      ],
      "name": "OnlyCoordinatorCanFulfill",
      "type": "error"
    },
    {
      "inputs": [],
      "name": "RandomIpfsNft__NeedMoreETHSent",
      "type": "error"
    },
    {
      "inputs": [],
      "name": "RandomIpfsNft__RangeOutOfBounds",
      "type": "error"
    },
    {
      "inputs": [],
      "name": "RandomIpfsNft__TransferFailed",
      "type": "error"
    },
    {
      "anonymous": false,
      "inputs": [
        {
          "indexed": true,
          "internalType": "address",
          "name": "owner",
          "type": "address"
        },
        {
          "indexed": true,
          "internalType": "address",
          "name": "approved",
          "type": "address"
        },
        {
          "indexed": true,
          "internalType": "uint256",
          "name": "tokenId",
          "type": "uint256"
        }
      ],
      "name": "Approval",
      "type": "event"
    },
    {
      "anonymous": false,
      "inputs": [
        {
          "indexed": true,
          "internalType": "address",
          "name": "owner",
          "type": "address"
        },
        {
          "indexed": true,
          "internalType": "address",
          "name": "operator",
          "type": "address"
        },
        {
          "indexed": false,
          "internalType": "bool",
          "name": "approved",
          "type": "bool"
        }
      ],
      "name": "ApprovalForAll",
      "type": "event"
    },
    {
      "anonymous": false,
      "inputs": [
        {
          "indexed": false,
          "internalType": "enum RandomIpfsNft.Breed",
          "name": "breed",
          "type": "uint8"
        },
        {
          "indexed": false,
          "internalType": "address",
          "name": "minter",
          "type": "address"
        }
      ],
      "name": "NftMinted",
      "type": "event"
    },
    {
      "anonymous": false,
      "inputs": [
        {
          "indexed": true,
          "internalType": "uint256",
          "name": "requestId",
          "type": "uint256"
        },
        {
          "indexed": true,
          "internalType": "address",
          "name": "requester",
          "type": "address"
        }
      ],
      "name": "NftRequested",
      "type": "event"
    },
    {
      "anonymous": false,
      "inputs": [
        {
          "indexed": true,
          "internalType": "address",
          "name": "previousOwner",
          "type": "address"
        },
        {
          "indexed": true,
          "internalType": "address",
          "name": "newOwner",
          "type": "address"
        }
      ],
      "name": "OwnershipTransferred",
      "type": "event"
    },
    {
      "anonymous": false,
      "inputs": [
        {
          "indexed": true,
          "internalType": "address",
          "name": "from",
          "type": "address"
        },
        {
          "indexed": true,
          "internalType": "address",
          "name": "to",
          "type": "address"
        },
        {
          "indexed": true,
          "internalType": "uint256",
          "name": "tokenId",
          "type": "uint256"
        }
      ],
      "name": "Transfer",
      "type": "event"
    },
    {
      "inputs": [
        {
          "internalType": "address",
          "name": "to",
          "type": "address"
        },
        {
          "internalType": "uint256",
          "name": "tokenId",
          "type": "uint256"
        }
      ],
      "name": "approve",
      "outputs": [],
      "stateMutability": "nonpayable",
      "type": "function"
    },
    {
      "inputs": [
        {
          "internalType": "address",
          "name": "owner",
          "type": "address"
        }
      ],
      "name": "balanceOf",
      "outputs": [
        {
          "internalType": "uint256",
          "name": "",
          "type": "uint256"
        }
      ],
      "stateMutability": "view",
      "type": "function"
    },
    {
      "inputs": [
        {
          "internalType": "uint256",
          "name": "tokenId",
          "type": "uint256"
        }
      ],
      "name": "getApproved",
      "outputs": [
        {
          "internalType": "address",
          "name": "",
          "type": "address"
        }
      ],
      "stateMutability": "view",
      "type": "function"
    },
    {
      "inputs": [
        {
          "internalType": "uint256",
          "name": "moddedRng",
          "type": "uint256"
        }
      ],
      "name": "getBreedFromModdedRng",
      "outputs": [
        {
          "internalType": "enum RandomIpfsNft.Breed",
          "name": "",
          "type": "uint8"
        }
      ],
      "stateMutability": "pure",
      "type": "function"
    },
    {
      "inputs": [],
      "name": "getChanceArray",
      "outputs": [
        {
          "internalType": "uint256[3]",
          "name": "",
          "type": "uint256[3]"
        }
      ],
      "stateMutability": "pure",
      "type": "function"
    },
    {
      "inputs": [
        {
          "internalType": "uint256",
          "name": "index",
          "type": "uint256"
        }
      ],
      "name": "getDogTokenUris",
      "outputs": [
        {
          "internalType": "string",
          "name": "",
          "type": "string"
        }
      ],
      "stateMutability": "view",
      "type": "function"
    },
    {
      "inputs": [],
      "name": "getMintFee",
      "outputs": [
        {
          "internalType": "uint256",
          "name": "",
          "type": "uint256"
        }
      ],
      "stateMutability": "view",
      "type": "function"
    },
    {
      "inputs": [],
      "name": "getTokenCounter",
      "outputs": [
        {
          "internalType": "uint256",
          "name": "",
          "type": "uint256"
        }
      ],
      "stateMutability": "view",
      "type": "function"
    },
    {
      "inputs": [
        {
          "internalType": "address",
          "name": "owner",
          "type": "address"
        },
        {
          "internalType": "address",
          "name": "operator",
          "type": "address"
        }
      ],
      "name": "isApprovedForAll",
      "outputs": [
        {
          "internalType": "bool",
          "name": "",
          "type": "bool"
        }
      ],
      "stateMutability": "view",
      "type": "function"
    },
    {
      "inputs": [],
      "name": "name",
      "outputs": [
        {
          "internalType": "string",
          "name": "",
          "type": "string"
        }
      ],
      "stateMutability": "view",
      "type": "function"
    },
    {
      "inputs": [],
      "name": "owner",
      "outputs": [
        {
          "internalType": "address",
          "name": "",
          "type": "address"
        }
      ],
      "stateMutability": "view",
      "type": "function"
    },
    {
      "inputs": [
        {
          "internalType": "uint256",
          "name": "tokenId",
          "type": "uint256"
        }
      ],
      "name": "ownerOf",
      "outputs": [
        {
          "internalType": "address",
          "name": "",
          "type": "address"
        }
      ],
      "stateMutability": "view",
      "type": "function"
    },
    {
      "inputs": [
        {
          "internalType": "uint256",
          "name": "requestId",
          "type": "uint256"
        },
        {
          "internalType": "uint256[]",
          "name": "randomWords",
          "type": "uint256[]"
        }
      ],
      "name": "rawFulfillRandomWords",
      "outputs": [],
      "stateMutability": "nonpayable",
      "type": "function"
    },
    {
      "inputs": [],
      "name": "renounceOwnership",
      "outputs": [],
      "stateMutability": "nonpayable",
      "type": "function"
    },
    {
      "inputs": [],
      "name": "requestNft",
      "outputs": [
        {
          "internalType": "uint256",
          "name": "requestId",
          "type": "uint256"
        }
      ],
      "stateMutability": "payable",
      "type": "function"
    },
    {
      "inputs": [
        {
          "internalType": "uint256",
          "name": "",
          "type": "uint256"
        }
      ],
      "name": "s_requestIdtoSender",
      "outputs": [
        {
          "internalType": "address",
          "name": "",
          "type": "address"
        }
      ],
      "stateMutability": "view",
      "type": "function"
    },
    {
      "inputs": [],
      "name": "s_tokenCounter",
      "outputs": [
        {
          "internalType": "uint256",
          "name": "",
          "type": "uint256"
        }
      ],
      "stateMutability": "view",
      "type": "function"
    },
    {
      "inputs": [
        {
          "internalType": "address",
          "name": "from",
          "type": "address"
        },
        {
          "internalType": "address",
          "name": "to",
          "type": "address"
        },
        {
          "internalType": "uint256",
          "name": "tokenId",
          "type": "uint256"
        }
      ],
      "name": "safeTransferFrom",
      "outputs": [],
      "stateMutability": "nonpayable",
      "type": "function"
    },
    {
      "inputs": [
        {
          "internalType": "address",
          "name": "from",
          "type": "address"
        },
        {
          "internalType": "address",
          "name": "to",
          "type": "address"
        },
        {
          "internalType": "uint256",
          "name": "tokenId",
          "type": "uint256"
        },
        {
          "internalType": "bytes",
          "name": "data",
          "type": "bytes"
        }
      ],
      "name": "safeTransferFrom",
      "outputs": [],
      "stateMutability": "nonpayable",
      "type": "function"
    },
    {
      "inputs": [
        {
          "internalType": "address",
          "name": "operator",
          "type": "address"
        },
        {
          "internalType": "bool",
          "name": "approved",
          "type": "bool"
        }
      ],
      "name": "setApprovalForAll",
      "outputs": [],
      "stateMutability": "nonpayable",
      "type": "function"
    },
    {
      "inputs": [
        {
          "internalType": "bytes4",
          "name": "interfaceId",
          "type": "bytes4"
        }
      ],
      "name": "supportsInterface",
      "outputs": [
        {
          "internalType": "bool",
          "name": "",
          "type": "bool"
        }
      ],
      "stateMutability": "view",
      "type": "function"
    },
    {
      "inputs": [],
      "name": "symbol",
      "outputs": [
        {
          "internalType": "string",
          "name": "",
          "type": "string"
        }
      ],
      "stateMutability": "view",
      "type": "function"
    },
    {
      "inputs": [
        {
          "internalType": "uint256",
          "name": "tokenId",
          "type": "uint256"
        }
      ],
      "name": "tokenURI",
      "outputs": [
        {
          "internalType": "string",
          "name": "",
          "type": "string"
        }
      ],
      "stateMutability": "view",
      "type": "function"
    },
    {
      "inputs": [
        {
          "internalType": "address",
          "name": "from",
          "type": "address"
        },
        {
          "internalType": "address",
          "name": "to",
          "type": "address"
        },
        {
          "internalType": "uint256",
          "name": "tokenId",
          "type": "uint256"
        }
      ],
      "name": "transferFrom",
      "outputs": [],
      "stateMutability": "nonpayable",
      "type": "function"
    },
    {
      "inputs": [
        {
          "internalType": "address",
          "name": "newOwner",
          "type": "address"
        }
      ],
      "name": "transferOwnership",
      "outputs": [],
      "stateMutability": "nonpayable",
      "type": "function"
    },
    {
      "inputs": [],
      "name": "withdraw",
      "outputs": [],
      "stateMutability": "nonpayable",
      "type": "function"
    }
  ],
  "transactionHash": "0x9a8a20c9b27fe8516c170ba2a9ba7ce56b6b14c2ad0aad93188250ebd2955d3e",
  "args": [
    "0x2Ca8E0C643bDe4C2E08ab1fA0da3401AdAD7734D",
    "6830",
    "0x79d3d8832d904592c0bf9818b621522c988bb8b0c05cdc3b15aea1b6e8db0c15",
    "10000000000000000",
    "500000",
    [
      "ipfs://QmaVkBn2tKmjbhphU7eyztbvSQU5EXDdqRyXZtRhSGgJGo",
      "ipfs://QmYQC5aGZu2PTH8XzbJrbDnvhj3gVs7ya33H9mqUNvST3d",
      "ipfs://QmZYmH5iDbD6v3U2ixoVAjioSzvWJszDzYdbeCLquGSpVm"
    ]
  ],
  "numDeployments": 1,
  "solcInputHash": "041b69feae222ae8b2f051fd63ee3b2f",
  "bytecode": "0x6101406040523480156200001257600080fd5b50604051620048fb380380620048fb83398181016040528101906200003891906200074f565b6040518060400160405280600f81526020017f52616e646f6d2049504653204e465400000000000000000000000000000000008152506040518060400160405280600381526020017f52494e0000000000000000000000000000000000000000000000000000000000815250878073ffffffffffffffffffffffffffffffffffffffff1660808173ffffffffffffffffffffffffffffffffffffffff1681525050508160009081620000eb919062000a4b565b508060019081620000fd919062000a4b565b5050506200012062000114620001b660201b60201c565b620001be60201b60201c565b8573ffffffffffffffffffffffffffffffffffffffff1660a08173ffffffffffffffffffffffffffffffffffffffff16815250508467ffffffffffffffff1660c08167ffffffffffffffff16815250508360e081815250508163ffffffff166101008163ffffffff168152505080600a906003620001a092919062000284565b5082610120818152505050505050505062000b32565b600033905090565b6000600760009054906101000a900473ffffffffffffffffffffffffffffffffffffffff16905081600760006101000a81548173ffffffffffffffffffffffffffffffffffffffff021916908373ffffffffffffffffffffffffffffffffffffffff1602179055508173ffffffffffffffffffffffffffffffffffffffff168173ffffffffffffffffffffffffffffffffffffffff167f8be0079c531659141344cd1fd0a4f28419497f9722a3daafe3b4186f6b6457e060405160405180910390a35050565b828054828255906000526020600020908101928215620002d1579160200282015b82811115620002d0578251829081620002bf919062000a4b565b5091602001919060010190620002a5565b5b509050620002e09190620002e4565b5090565b5b80821115620003085760008181620002fe91906200030c565b50600101620002e5565b5090565b5080546200031a9062000844565b6000825580601f106200032e57506200034f565b601f0160209004906000526020600020908101906200034e919062000352565b5b50565b5b808211156200036d57600081600090555060010162000353565b5090565b6000604051905090565b600080fd5b600080fd5b600073ffffffffffffffffffffffffffffffffffffffff82169050919050565b6000620003b28262000385565b9050919050565b620003c481620003a5565b8114620003d057600080fd5b50565b600081519050620003e481620003b9565b92915050565b600067ffffffffffffffff82169050919050565b6200040981620003ea565b81146200041557600080fd5b50565b6000815190506200042981620003fe565b92915050565b6000819050919050565b62000444816200042f565b81146200045057600080fd5b50565b600081519050620004648162000439565b92915050565b6000819050919050565b6200047f816200046a565b81146200048b57600080fd5b50565b6000815190506200049f8162000474565b92915050565b600063ffffffff82169050919050565b620004c081620004a5565b8114620004cc57600080fd5b50565b600081519050620004e081620004b5565b92915050565b600080fd5b6000601f19601f8301169050919050565b7f4e487b7100000000000000000000000000000000000000000000000000000000600052604160045260246000fd5b6200053682620004eb565b810181811067ffffffffffffffff82111715620005585762000557620004fc565b5b80604052505050565b60006200056d62000371565b90506200057b82826200052b565b919050565b600067ffffffffffffffff8211156200059e576200059d620004fc565b5b602082029050919050565b600080fd5b600080fd5b600067ffffffffffffffff821115620005d157620005d0620004fc565b5b620005dc82620004eb565b9050602081019050919050565b60005b8381101562000609578082015181840152602081019050620005ec565b60008484015250505050565b60006200062c6200062684620005b3565b62000561565b9050828152602081018484840111156200064b576200064a620005ae565b5b62000658848285620005e9565b509392505050565b600082601f830112620006785762000677620004e6565b5b81516200068a84826020860162000615565b91505092915050565b6000620006aa620006a48462000580565b62000561565b90508060208402830185811115620006c757620006c6620005a9565b5b835b818110156200071557805167ffffffffffffffff811115620006f057620006ef620004e6565b5b808601620006ff898262000660565b85526020850194505050602081019050620006c9565b5050509392505050565b600082601f830112620007375762000736620004e6565b5b60036200074684828562000693565b91505092915050565b60008060008060008060c087890312156200076f576200076e6200037b565b5b60006200077f89828a01620003d3565b96505060206200079289828a0162000418565b9550506040620007a589828a0162000453565b9450506060620007b889828a016200048e565b9350506080620007cb89828a01620004cf565b92505060a087015167ffffffffffffffff811115620007ef57620007ee62000380565b5b620007fd89828a016200071f565b9150509295509295509295565b600081519050919050565b7f4e487b7100000000000000000000000000000000000000000000000000000000600052602260045260246000fd5b600060028204905060018216806200085d57607f821691505b60208210810362000873576200087262000815565b5b50919050565b60008190508160005260206000209050919050565b60006020601f8301049050919050565b600082821b905092915050565b600060088302620008dd7fffffffffffffffffffffffffffffffffffffffffffffffffffffffffffffffff826200089e565b620008e986836200089e565b95508019841693508086168417925050509392505050565b6000819050919050565b60006200092c6200092662000920846200046a565b62000901565b6200046a565b9050919050565b6000819050919050565b62000948836200090b565b62000960620009578262000933565b848454620008ab565b825550505050565b600090565b6200097762000968565b620009848184846200093d565b505050565b5b81811015620009ac57620009a06000826200096d565b6001810190506200098a565b5050565b601f821115620009fb57620009c58162000879565b620009d0846200088e565b81016020851015620009e0578190505b620009f8620009ef856200088e565b83018262000989565b50505b505050565b600082821c905092915050565b600062000a206000198460080262000a00565b1980831691505092915050565b600062000a3b838362000a0d565b9150826002028217905092915050565b62000a56826200080a565b67ffffffffffffffff81111562000a725762000a71620004fc565b5b62000a7e825462000844565b62000a8b828285620009b0565b600060209050601f83116001811462000ac3576000841562000aae578287015190505b62000aba858262000a2d565b86555062000b2a565b601f19841662000ad38662000879565b60005b8281101562000afd5784890151825560018201915060208501945060208101905062000ad6565b8683101562000b1d578489015162000b19601f89168262000a0d565b8355505b6001600288020188555050505b505050505050565b60805160a05160c05160e0516101005161012051613d6b62000b9060003960008181610d480152610f0e01526000610fe801526000610fa401526000610fc501526000610f6801526000818161091c01526109700152613d6b6000f3fe6080604052600436106101815760003560e01c806370a08231116100d1578063a51cccf31161008a578063c87b56dd11610064578063c87b56dd14610563578063e985e9c5146105a0578063f2fde38b146105dd578063f8d7624b1461060657610181565b8063a51cccf3146104df578063aa1524911461051c578063b88d4fde1461053a57610181565b806370a08231146103e1578063715018a61461041e5780637a5caab3146104355780638da5cb5b1461046057806395d89b411461048b578063a22cb465146104b657610181565b806323b872dd1161013e57806342842e0e1161011857806342842e0e146103255780635dacf5f41461034e5780636352211e146103795780636e02007d146103b657610181565b806323b872dd146102a85780633af25975146102d15780633ccfd60b1461030e57610181565b806301ffc9a71461018657806306fdde03146101c3578063081812fc146101ee578063095ea7b31461022b5780630b21a83b146102545780631fe543e31461027f575b600080fd5b34801561019257600080fd5b506101ad60048036038101906101a891906126f9565b610643565b6040516101ba9190612741565b60405180910390f35b3480156101cf57600080fd5b506101d8610725565b6040516101e591906127ec565b60405180910390f35b3480156101fa57600080fd5b5061021560048036038101906102109190612844565b6107b7565b60405161022291906128b2565b60405180910390f35b34801561023757600080fd5b50610252600480360381019061024d91906128f9565b6107fd565b005b34801561026057600080fd5b50610269610914565b6040516102769190612948565b60405180910390f35b34801561028b57600080fd5b506102a660048036038101906102a19190612aab565b61091a565b005b3480156102b457600080fd5b506102cf60048036038101906102ca9190612b07565b6109da565b005b3480156102dd57600080fd5b506102f860048036038101906102f39190612844565b610a3a565b60405161030591906127ec565b60405180910390f35b34801561031a57600080fd5b50610323610aea565b005b34801561033157600080fd5b5061034c60048036038101906103479190612b07565b610b9e565b005b34801561035a57600080fd5b50610363610bbe565b6040516103709190612c05565b60405180910390f35b34801561038557600080fd5b506103a0600480360381019061039b9190612844565b610be9565b6040516103ad91906128b2565b60405180910390f35b3480156103c257600080fd5b506103cb610c6f565b6040516103d89190612948565b60405180910390f35b3480156103ed57600080fd5b5061040860048036038101906104039190612c20565b610c79565b6040516104159190612948565b60405180910390f35b34801561042a57600080fd5b50610433610d30565b005b34801561044157600080fd5b5061044a610d44565b6040516104579190612948565b60405180910390f35b34801561046c57600080fd5b50610475610d6c565b60405161048291906128b2565b60405180910390f35b34801561049757600080fd5b506104a0610d96565b6040516104ad91906127ec565b60405180910390f35b3480156104c257600080fd5b506104dd60048036038101906104d89190612c79565b610e28565b005b3480156104eb57600080fd5b5061050660048036038101906105019190612844565b610e3e565b6040516105139190612d30565b60405180910390f35b610524610f0a565b6040516105319190612948565b60405180910390f35b34801561054657600080fd5b50610561600480360381019061055c9190612e00565b611107565b005b34801561056f57600080fd5b5061058a60048036038101906105859190612844565b611169565b60405161059791906127ec565b60405180910390f35b3480156105ac57600080fd5b506105c760048036038101906105c29190612e83565b61127b565b6040516105d49190612741565b60405180910390f35b3480156105e957600080fd5b5061060460048036038101906105ff9190612c20565b61130f565b005b34801561061257600080fd5b5061062d60048036038101906106289190612844565b611392565b60405161063a91906128b2565b60405180910390f35b60007f80ac58cd000000000000000000000000000000000000000000000000000000007bffffffffffffffffffffffffffffffffffffffffffffffffffffffff1916827bffffffffffffffffffffffffffffffffffffffffffffffffffffffff1916148061070e57507f5b5e139f000000000000000000000000000000000000000000000000000000007bffffffffffffffffffffffffffffffffffffffffffffffffffffffff1916827bffffffffffffffffffffffffffffffffffffffffffffffffffffffff1916145b8061071e575061071d826113c5565b5b9050919050565b60606000805461073490612ef2565b80601f016020809104026020016040519081016040528092919081815260200182805461076090612ef2565b80156107ad5780601f10610782576101008083540402835291602001916107ad565b820191906000526020600020905b81548152906001019060200180831161079057829003601f168201915b5050505050905090565b60006107c28261142f565b6004600083815260200190815260200160002060009054906101000a900473ffffffffffffffffffffffffffffffffffffffff169050919050565b600061080882610be9565b90508073ffffffffffffffffffffffffffffffffffffffff168373ffffffffffffffffffffffffffffffffffffffff1603610878576040517f08c379a000000000000000000000000000000000000000000000000000000000815260040161086f90612f95565b60405180910390fd5b8073ffffffffffffffffffffffffffffffffffffffff1661089761147a565b73ffffffffffffffffffffffffffffffffffffffff1614806108c657506108c5816108c061147a565b61127b565b5b610905576040517f08c379a00000000000000000000000000000000000000000000000000000000081526004016108fc90613027565b60405180910390fd5b61090f8383611482565b505050565b60085481565b7f000000000000000000000000000000000000000000000000000000000000000073ffffffffffffffffffffffffffffffffffffffff163373ffffffffffffffffffffffffffffffffffffffff16146109cc57337f00000000000000000000000000000000000000000000000000000000000000006040517f1cf993f40000000000000000000000000000000000000000000000000000000081526004016109c3929190613047565b60405180910390fd5b6109d6828261153b565b5050565b6109eb6109e561147a565b826116da565b610a2a576040517f08c379a0000000000000000000000000000000000000000000000000000000008152600401610a21906130e2565b60405180910390fd5b610a3583838361176f565b505050565b6060600a8281548110610a5057610a4f613102565b5b906000526020600020018054610a6590612ef2565b80601f0160208091040260200160405190810160405280929190818152602001828054610a9190612ef2565b8015610ade5780601f10610ab357610100808354040283529160200191610ade565b820191906000526020600020905b815481529060010190602001808311610ac157829003601f168201915b50505050509050919050565b610af2611a68565b600047905060003373ffffffffffffffffffffffffffffffffffffffff1682604051610b1d90613162565b60006040518083038185875af1925050503d8060008114610b5a576040519150601f19603f3d011682016040523d82523d6000602084013e610b5f565b606091505b5050905080610b9a576040517fca7e25b700000000000000000000000000000000000000000000000000000000815260040160405180910390fd5b5050565b610bb983838360405180602001604052806000815250611107565b505050565b610bc661266b565b6040518060600160405280600a8152602001601e81526020016064815250905090565b600080610bf583611ae6565b9050600073ffffffffffffffffffffffffffffffffffffffff168173ffffffffffffffffffffffffffffffffffffffff1603610c66576040517f08c379a0000000000000000000000000000000000000000000000000000000008152600401610c5d906131c3565b60405180910390fd5b80915050919050565b6000600854905090565b60008073ffffffffffffffffffffffffffffffffffffffff168273ffffffffffffffffffffffffffffffffffffffff1603610ce9576040517f08c379a0000000000000000000000000000000000000000000000000000000008152600401610ce090613255565b60405180910390fd5b600360008373ffffffffffffffffffffffffffffffffffffffff1673ffffffffffffffffffffffffffffffffffffffff168152602001908152602001600020549050919050565b610d38611a68565b610d426000611b23565b565b60007f0000000000000000000000000000000000000000000000000000000000000000905090565b6000600760009054906101000a900473ffffffffffffffffffffffffffffffffffffffff16905090565b606060018054610da590612ef2565b80601f0160208091040260200160405190810160405280929190818152602001828054610dd190612ef2565b8015610e1e5780601f10610df357610100808354040283529160200191610e1e565b820191906000526020600020905b815481529060010190602001808311610e0157829003601f168201915b5050505050905090565b610e3a610e3361147a565b8383611be9565b5050565b600080600090506000610e4f610bbe565b905060005b6003811015610ed257828510158015610e835750818160038110610e7b57610e7a613102565b5b602002015185105b15610ea557806002811115610e9b57610e9a612cb9565b5b9350505050610f05565b818160038110610eb857610eb7613102565b5b602002015192508080610eca906132a4565b915050610e54565b506040517f12806c9d00000000000000000000000000000000000000000000000000000000815260040160405180910390fd5b919050565b60007f0000000000000000000000000000000000000000000000000000000000000000341015610f66576040517fb90f491000000000000000000000000000000000000000000000000000000000815260040160405180910390fd5b7f000000000000000000000000000000000000000000000000000000000000000073ffffffffffffffffffffffffffffffffffffffff16635d3b1d307f00000000000000000000000000000000000000000000000000000000000000007f000000000000000000000000000000000000000000000000000000000000000060037f000000000000000000000000000000000000000000000000000000000000000060016040518663ffffffff1660e01b8152600401611029959493929190613364565b6020604051808303816000875af1158015611048573d6000803e3d6000fd5b505050506040513d601f19601f8201168201806040525081019061106c91906133cc565b9050336009600083815260200190815260200160002060006101000a81548173ffffffffffffffffffffffffffffffffffffffff021916908373ffffffffffffffffffffffffffffffffffffffff1602179055503373ffffffffffffffffffffffffffffffffffffffff16817ff873236e6cc0ecc5be1a9a35c95ee5b8d1ac4cc7bfef0cc5060391d6cc98e26b60405160405180910390a390565b61111861111261147a565b836116da565b611157576040517f08c379a000000000000000000000000000000000000000000000000000000000815260040161114e906130e2565b60405180910390fd5b61116384848484611d55565b50505050565b60606111748261142f565b600060066000848152602001908152602001600020805461119490612ef2565b80601f01602080910402602001604051908101604052809291908181526020018280546111c090612ef2565b801561120d5780601f106111e25761010080835404028352916020019161120d565b820191906000526020600020905b8154815290600101906020018083116111f057829003601f168201915b50505050509050600061121e611db1565b90506000815103611233578192505050611276565b600082511115611268578082604051602001611250929190613435565b60405160208183030381529060405292505050611276565b61127184611dc8565b925050505b919050565b6000600560008473ffffffffffffffffffffffffffffffffffffffff1673ffffffffffffffffffffffffffffffffffffffff16815260200190815260200160002060008373ffffffffffffffffffffffffffffffffffffffff1673ffffffffffffffffffffffffffffffffffffffff16815260200190815260200160002060009054906101000a900460ff16905092915050565b611317611a68565b600073ffffffffffffffffffffffffffffffffffffffff168173ffffffffffffffffffffffffffffffffffffffff1603611386576040517f08c379a000000000000000000000000000000000000000000000000000000000815260040161137d906134cb565b60405180910390fd5b61138f81611b23565b50565b60096020528060005260406000206000915054906101000a900473ffffffffffffffffffffffffffffffffffffffff1681565b60007f01ffc9a7000000000000000000000000000000000000000000000000000000007bffffffffffffffffffffffffffffffffffffffffffffffffffffffff1916827bffffffffffffffffffffffffffffffffffffffffffffffffffffffff1916149050919050565b61143881611e30565b611477576040517f08c379a000000000000000000000000000000000000000000000000000000000815260040161146e906131c3565b60405180910390fd5b50565b600033905090565b816004600083815260200190815260200160002060006101000a81548173ffffffffffffffffffffffffffffffffffffffff021916908373ffffffffffffffffffffffffffffffffffffffff160217905550808273ffffffffffffffffffffffffffffffffffffffff166114f583610be9565b73ffffffffffffffffffffffffffffffffffffffff167f8c5be1e5ebec7d5bd14f71427d1e84f3dd0314c0f7b2291e5b200ac8c7c3b92560405160405180910390a45050565b60006009600084815260200190815260200160002060009054906101000a900473ffffffffffffffffffffffffffffffffffffffff1690506000600854905060016008600082825461158d91906134eb565b9250508190555060006064846000815181106115ac576115ab613102565b5b60200260200101516115be919061354e565b905060006115cb82610e3e565b90506115d78484611e71565b61169983600a8360028111156115f0576115ef612cb9565b5b8154811061160157611600613102565b5b90600052602060002001805461161690612ef2565b80601f016020809104026020016040519081016040528092919081815260200182805461164290612ef2565b801561168f5780601f106116645761010080835404028352916020019161168f565b820191906000526020600020905b81548152906001019060200180831161167257829003601f168201915b5050505050611e8f565b7f8a269f26b688e110e9cbd887d163dab35cae678fa353a0292de532c0cac1ecdc81856040516116ca92919061357f565b60405180910390a1505050505050565b6000806116e683610be9565b90508073ffffffffffffffffffffffffffffffffffffffff168473ffffffffffffffffffffffffffffffffffffffff1614806117285750611727818561127b565b5b8061176657508373ffffffffffffffffffffffffffffffffffffffff1661174e846107b7565b73ffffffffffffffffffffffffffffffffffffffff16145b91505092915050565b8273ffffffffffffffffffffffffffffffffffffffff1661178f82610be9565b73ffffffffffffffffffffffffffffffffffffffff16146117e5576040517f08c379a00000000000000000000000000000000000000000000000000000000081526004016117dc9061361a565b60405180910390fd5b600073ffffffffffffffffffffffffffffffffffffffff168273ffffffffffffffffffffffffffffffffffffffff1603611854576040517f08c379a000000000000000000000000000000000000000000000000000000000815260040161184b906136ac565b60405180910390fd5b6118618383836001611efc565b8273ffffffffffffffffffffffffffffffffffffffff1661188182610be9565b73ffffffffffffffffffffffffffffffffffffffff16146118d7576040517f08c379a00000000000000000000000000000000000000000000000000000000081526004016118ce9061361a565b60405180910390fd5b6004600082815260200190815260200160002060006101000a81549073ffffffffffffffffffffffffffffffffffffffff02191690556001600360008573ffffffffffffffffffffffffffffffffffffffff1673ffffffffffffffffffffffffffffffffffffffff168152602001908152602001600020600082825403925050819055506001600360008473ffffffffffffffffffffffffffffffffffffffff1673ffffffffffffffffffffffffffffffffffffffff16815260200190815260200160002060008282540192505081905550816002600083815260200190815260200160002060006101000a81548173ffffffffffffffffffffffffffffffffffffffff021916908373ffffffffffffffffffffffffffffffffffffffff160217905550808273ffffffffffffffffffffffffffffffffffffffff168473ffffffffffffffffffffffffffffffffffffffff167fddf252ad1be2c89b69c2b068fc378daa952ba7f163c4a11628f55a4df523b3ef60405160405180910390a4611a638383836001612022565b505050565b611a7061147a565b73ffffffffffffffffffffffffffffffffffffffff16611a8e610d6c565b73ffffffffffffffffffffffffffffffffffffffff1614611ae4576040517f08c379a0000000000000000000000000000000000000000000000000000000008152600401611adb90613718565b60405180910390fd5b565b60006002600083815260200190815260200160002060009054906101000a900473ffffffffffffffffffffffffffffffffffffffff169050919050565b6000600760009054906101000a900473ffffffffffffffffffffffffffffffffffffffff16905081600760006101000a81548173ffffffffffffffffffffffffffffffffffffffff021916908373ffffffffffffffffffffffffffffffffffffffff1602179055508173ffffffffffffffffffffffffffffffffffffffff168173ffffffffffffffffffffffffffffffffffffffff167f8be0079c531659141344cd1fd0a4f28419497f9722a3daafe3b4186f6b6457e060405160405180910390a35050565b8173ffffffffffffffffffffffffffffffffffffffff168373ffffffffffffffffffffffffffffffffffffffff1603611c57576040517f08c379a0000000000000000000000000000000000000000000000000000000008152600401611c4e90613784565b60405180910390fd5b80600560008573ffffffffffffffffffffffffffffffffffffffff1673ffffffffffffffffffffffffffffffffffffffff16815260200190815260200160002060008473ffffffffffffffffffffffffffffffffffffffff1673ffffffffffffffffffffffffffffffffffffffff16815260200190815260200160002060006101000a81548160ff0219169083151502179055508173ffffffffffffffffffffffffffffffffffffffff168373ffffffffffffffffffffffffffffffffffffffff167f17307eab39ab6107e8899845ad3d59bd9653f200f220920489ca2b5937696c3183604051611d489190612741565b60405180910390a3505050565b611d6084848461176f565b611d6c84848484612028565b611dab576040517f08c379a0000000000000000000000000000000000000000000000000000000008152600401611da290613816565b60405180910390fd5b50505050565b606060405180602001604052806000815250905090565b6060611dd38261142f565b6000611ddd611db1565b90506000815111611dfd5760405180602001604052806000815250611e28565b80611e07846121af565b604051602001611e18929190613435565b6040516020818303038152906040525b915050919050565b60008073ffffffffffffffffffffffffffffffffffffffff16611e5283611ae6565b73ffffffffffffffffffffffffffffffffffffffff1614159050919050565b611e8b82826040518060200160405280600081525061227d565b5050565b611e9882611e30565b611ed7576040517f08c379a0000000000000000000000000000000000000000000000000000000008152600401611ece906138a8565b60405180910390fd5b80600660008481526020019081526020016000209081611ef79190613a74565b505050565b600181111561201c57600073ffffffffffffffffffffffffffffffffffffffff168473ffffffffffffffffffffffffffffffffffffffff1614611f905780600360008673ffffffffffffffffffffffffffffffffffffffff1673ffffffffffffffffffffffffffffffffffffffff1681526020019081526020016000206000828254611f889190613b46565b925050819055505b600073ffffffffffffffffffffffffffffffffffffffff168373ffffffffffffffffffffffffffffffffffffffff161461201b5780600360008573ffffffffffffffffffffffffffffffffffffffff1673ffffffffffffffffffffffffffffffffffffffff168152602001908152602001600020600082825461201391906134eb565b925050819055505b5b50505050565b50505050565b60006120498473ffffffffffffffffffffffffffffffffffffffff166122d8565b156121a2578373ffffffffffffffffffffffffffffffffffffffff1663150b7a0261207261147a565b8786866040518563ffffffff1660e01b81526004016120949493929190613bcf565b6020604051808303816000875af19250505080156120d057506040513d601f19601f820116820180604052508101906120cd9190613c30565b60015b612152573d8060008114612100576040519150601f19603f3d011682016040523d82523d6000602084013e612105565b606091505b50600081510361214a576040517f08c379a000000000000000000000000000000000000000000000000000000000815260040161214190613816565b60405180910390fd5b805181602001fd5b63150b7a0260e01b7bffffffffffffffffffffffffffffffffffffffffffffffffffffffff1916817bffffffffffffffffffffffffffffffffffffffffffffffffffffffff1916149150506121a7565b600190505b949350505050565b6060600060016121be846122fb565b01905060008167ffffffffffffffff8111156121dd576121dc612968565b5b6040519080825280601f01601f19166020018201604052801561220f5781602001600182028036833780820191505090505b509050600082602001820190505b600115612272578080600190039150507f3031323334353637383961626364656600000000000000000000000000000000600a86061a8153600a85816122665761226561351f565b5b0494506000850361221d575b819350505050919050565b612287838361244e565b6122946000848484612028565b6122d3576040517f08c379a00000000000000000000000000000000000000000000000000000000081526004016122ca90613816565b60405180910390fd5b505050565b6000808273ffffffffffffffffffffffffffffffffffffffff163b119050919050565b600080600090507a184f03e93ff9f4daa797ed6e38ed64bf6a1f0100000000000000008310612359577a184f03e93ff9f4daa797ed6e38ed64bf6a1f010000000000000000838161234f5761234e61351f565b5b0492506040810190505b6d04ee2d6d415b85acef81000000008310612396576d04ee2d6d415b85acef8100000000838161238c5761238b61351f565b5b0492506020810190505b662386f26fc1000083106123c557662386f26fc1000083816123bb576123ba61351f565b5b0492506010810190505b6305f5e10083106123ee576305f5e10083816123e4576123e361351f565b5b0492506008810190505b61271083106124135761271083816124095761240861351f565b5b0492506004810190505b60648310612436576064838161242c5761242b61351f565b5b0492506002810190505b600a8310612445576001810190505b80915050919050565b600073ffffffffffffffffffffffffffffffffffffffff168273ffffffffffffffffffffffffffffffffffffffff16036124bd576040517f08c379a00000000000000000000000000000000000000000000000000000000081526004016124b490613ca9565b60405180910390fd5b6124c681611e30565b15612506576040517f08c379a00000000000000000000000000000000000000000000000000000000081526004016124fd90613d15565b60405180910390fd5b612514600083836001611efc565b61251d81611e30565b1561255d576040517f08c379a000000000000000000000000000000000000000000000000000000000815260040161255490613d15565b60405180910390fd5b6001600360008473ffffffffffffffffffffffffffffffffffffffff1673ffffffffffffffffffffffffffffffffffffffff16815260200190815260200160002060008282540192505081905550816002600083815260200190815260200160002060006101000a81548173ffffffffffffffffffffffffffffffffffffffff021916908373ffffffffffffffffffffffffffffffffffffffff160217905550808273ffffffffffffffffffffffffffffffffffffffff16600073ffffffffffffffffffffffffffffffffffffffff167fddf252ad1be2c89b69c2b068fc378daa952ba7f163c4a11628f55a4df523b3ef60405160405180910390a4612667600083836001612022565b5050565b6040518060600160405280600390602082028036833780820191505090505090565b6000604051905090565b600080fd5b600080fd5b60007fffffffff0000000000000000000000000000000000000000000000000000000082169050919050565b6126d6816126a1565b81146126e157600080fd5b50565b6000813590506126f3816126cd565b92915050565b60006020828403121561270f5761270e612697565b5b600061271d848285016126e4565b91505092915050565b60008115159050919050565b61273b81612726565b82525050565b60006020820190506127566000830184612732565b92915050565b600081519050919050565b600082825260208201905092915050565b60005b8381101561279657808201518184015260208101905061277b565b60008484015250505050565b6000601f19601f8301169050919050565b60006127be8261275c565b6127c88185612767565b93506127d8818560208601612778565b6127e1816127a2565b840191505092915050565b6000602082019050818103600083015261280681846127b3565b905092915050565b6000819050919050565b6128218161280e565b811461282c57600080fd5b50565b60008135905061283e81612818565b92915050565b60006020828403121561285a57612859612697565b5b60006128688482850161282f565b91505092915050565b600073ffffffffffffffffffffffffffffffffffffffff82169050919050565b600061289c82612871565b9050919050565b6128ac81612891565b82525050565b60006020820190506128c760008301846128a3565b92915050565b6128d681612891565b81146128e157600080fd5b50565b6000813590506128f3816128cd565b92915050565b600080604083850312156129105761290f612697565b5b600061291e858286016128e4565b925050602061292f8582860161282f565b9150509250929050565b6129428161280e565b82525050565b600060208201905061295d6000830184612939565b92915050565b600080fd5b7f4e487b7100000000000000000000000000000000000000000000000000000000600052604160045260246000fd5b6129a0826127a2565b810181811067ffffffffffffffff821117156129bf576129be612968565b5b80604052505050565b60006129d261268d565b90506129de8282612997565b919050565b600067ffffffffffffffff8211156129fe576129fd612968565b5b602082029050602081019050919050565b600080fd5b6000612a27612a22846129e3565b6129c8565b90508083825260208201905060208402830185811115612a4a57612a49612a0f565b5b835b81811015612a735780612a5f888261282f565b845260208401935050602081019050612a4c565b5050509392505050565b600082601f830112612a9257612a91612963565b5b8135612aa2848260208601612a14565b91505092915050565b60008060408385031215612ac257612ac1612697565b5b6000612ad08582860161282f565b925050602083013567ffffffffffffffff811115612af157612af061269c565b5b612afd85828601612a7d565b9150509250929050565b600080600060608486031215612b2057612b1f612697565b5b6000612b2e868287016128e4565b9350506020612b3f868287016128e4565b9250506040612b508682870161282f565b9150509250925092565b600060039050919050565b600081905092915050565b6000819050919050565b612b838161280e565b82525050565b6000612b958383612b7a565b60208301905092915050565b6000602082019050919050565b612bb781612b5a565b612bc18184612b65565b9250612bcc82612b70565b8060005b83811015612bfd578151612be48782612b89565b9650612bef83612ba1565b925050600181019050612bd0565b505050505050565b6000606082019050612c1a6000830184612bae565b92915050565b600060208284031215612c3657612c35612697565b5b6000612c44848285016128e4565b91505092915050565b612c5681612726565b8114612c6157600080fd5b50565b600081359050612c7381612c4d565b92915050565b60008060408385031215612c9057612c8f612697565b5b6000612c9e858286016128e4565b9250506020612caf85828601612c64565b9150509250929050565b7f4e487b7100000000000000000000000000000000000000000000000000000000600052602160045260246000fd5b60038110612cf957612cf8612cb9565b5b50565b6000819050612d0a82612ce8565b919050565b6000612d1a82612cfc565b9050919050565b612d2a81612d0f565b82525050565b6000602082019050612d456000830184612d21565b92915050565b600080fd5b600067ffffffffffffffff821115612d6b57612d6a612968565b5b612d74826127a2565b9050602081019050919050565b82818337600083830152505050565b6000612da3612d9e84612d50565b6129c8565b905082815260208101848484011115612dbf57612dbe612d4b565b5b612dca848285612d81565b509392505050565b600082601f830112612de757612de6612963565b5b8135612df7848260208601612d90565b91505092915050565b60008060008060808587031215612e1a57612e19612697565b5b6000612e28878288016128e4565b9450506020612e39878288016128e4565b9350506040612e4a8782880161282f565b925050606085013567ffffffffffffffff811115612e6b57612e6a61269c565b5b612e7787828801612dd2565b91505092959194509250565b60008060408385031215612e9a57612e99612697565b5b6000612ea8858286016128e4565b9250506020612eb9858286016128e4565b9150509250929050565b7f4e487b7100000000000000000000000000000000000000000000000000000000600052602260045260246000fd5b60006002820490506001821680612f0a57607f821691505b602082108103612f1d57612f1c612ec3565b5b50919050565b7f4552433732313a20617070726f76616c20746f2063757272656e74206f776e6560008201527f7200000000000000000000000000000000000000000000000000000000000000602082015250565b6000612f7f602183612767565b9150612f8a82612f23565b604082019050919050565b60006020820190508181036000830152612fae81612f72565b9050919050565b7f4552433732313a20617070726f76652063616c6c6572206973206e6f7420746f60008201527f6b656e206f776e6572206f7220617070726f76656420666f7220616c6c000000602082015250565b6000613011603d83612767565b915061301c82612fb5565b604082019050919050565b6000602082019050818103600083015261304081613004565b9050919050565b600060408201905061305c60008301856128a3565b61306960208301846128a3565b9392505050565b7f4552433732313a2063616c6c6572206973206e6f7420746f6b656e206f776e6560008201527f72206f7220617070726f76656400000000000000000000000000000000000000602082015250565b60006130cc602d83612767565b91506130d782613070565b604082019050919050565b600060208201905081810360008301526130fb816130bf565b9050919050565b7f4e487b7100000000000000000000000000000000000000000000000000000000600052603260045260246000fd5b600081905092915050565b50565b600061314c600083613131565b91506131578261313c565b600082019050919050565b600061316d8261313f565b9150819050919050565b7f4552433732313a20696e76616c696420746f6b656e2049440000000000000000600082015250565b60006131ad601883612767565b91506131b882613177565b602082019050919050565b600060208201905081810360008301526131dc816131a0565b9050919050565b7f4552433732313a2061646472657373207a65726f206973206e6f74206120766160008201527f6c6964206f776e65720000000000000000000000000000000000000000000000602082015250565b600061323f602983612767565b915061324a826131e3565b604082019050919050565b6000602082019050818103600083015261326e81613232565b9050919050565b7f4e487b7100000000000000000000000000000000000000000000000000000000600052601160045260246000fd5b60006132af8261280e565b91507fffffffffffffffffffffffffffffffffffffffffffffffffffffffffffffffff82036132e1576132e0613275565b5b600182019050919050565b6000819050919050565b6132ff816132ec565b82525050565b600067ffffffffffffffff82169050919050565b61332281613305565b82525050565b600061ffff82169050919050565b61333f81613328565b82525050565b600063ffffffff82169050919050565b61335e81613345565b82525050565b600060a08201905061337960008301886132f6565b6133866020830187613319565b6133936040830186613336565b6133a06060830185613355565b6133ad6080830184613355565b9695505050505050565b6000815190506133c681612818565b92915050565b6000602082840312156133e2576133e1612697565b5b60006133f0848285016133b7565b91505092915050565b600081905092915050565b600061340f8261275c565b61341981856133f9565b9350613429818560208601612778565b80840191505092915050565b60006134418285613404565b915061344d8284613404565b91508190509392505050565b7f4f776e61626c653a206e6577206f776e657220697320746865207a65726f206160008201527f6464726573730000000000000000000000000000000000000000000000000000602082015250565b60006134b5602683612767565b91506134c082613459565b604082019050919050565b600060208201905081810360008301526134e4816134a8565b9050919050565b60006134f68261280e565b91506135018361280e565b925082820190508082111561351957613518613275565b5b92915050565b7f4e487b7100000000000000000000000000000000000000000000000000000000600052601260045260246000fd5b60006135598261280e565b91506135648361280e565b9250826135745761357361351f565b5b828206905092915050565b60006040820190506135946000830185612d21565b6135a160208301846128a3565b9392505050565b7f4552433732313a207472616e736665722066726f6d20696e636f72726563742060008201527f6f776e6572000000000000000000000000000000000000000000000000000000602082015250565b6000613604602583612767565b915061360f826135a8565b604082019050919050565b60006020820190508181036000830152613633816135f7565b9050919050565b7f4552433732313a207472616e7366657220746f20746865207a65726f2061646460008201527f7265737300000000000000000000000000000000000000000000000000000000602082015250565b6000613696602483612767565b91506136a18261363a565b604082019050919050565b600060208201905081810360008301526136c581613689565b9050919050565b7f4f776e61626c653a2063616c6c6572206973206e6f7420746865206f776e6572600082015250565b6000613702602083612767565b915061370d826136cc565b602082019050919050565b60006020820190508181036000830152613731816136f5565b9050919050565b7f4552433732313a20617070726f766520746f2063616c6c657200000000000000600082015250565b600061376e601983612767565b915061377982613738565b602082019050919050565b6000602082019050818103600083015261379d81613761565b9050919050565b7f4552433732313a207472616e7366657220746f206e6f6e20455243373231526560008201527f63656976657220696d706c656d656e7465720000000000000000000000000000602082015250565b6000613800603283612767565b915061380b826137a4565b604082019050919050565b6000602082019050818103600083015261382f816137f3565b9050919050565b7f45524337323155524953746f726167653a2055524920736574206f66206e6f6e60008201527f6578697374656e7420746f6b656e000000000000000000000000000000000000602082015250565b6000613892602e83612767565b915061389d82613836565b604082019050919050565b600060208201905081810360008301526138c181613885565b9050919050565b60008190508160005260206000209050919050565b60006020601f8301049050919050565b600082821b905092915050565b60006008830261392a7fffffffffffffffffffffffffffffffffffffffffffffffffffffffffffffffff826138ed565b61393486836138ed565b95508019841693508086168417925050509392505050565b6000819050919050565b600061397161396c6139678461280e565b61394c565b61280e565b9050919050565b6000819050919050565b61398b83613956565b61399f61399782613978565b8484546138fa565b825550505050565b600090565b6139b46139a7565b6139bf818484613982565b505050565b5b818110156139e3576139d86000826139ac565b6001810190506139c5565b5050565b601f821115613a28576139f9816138c8565b613a02846138dd565b81016020851015613a11578190505b613a25613a1d856138dd565b8301826139c4565b50505b505050565b600082821c905092915050565b6000613a4b60001984600802613a2d565b1980831691505092915050565b6000613a648383613a3a565b9150826002028217905092915050565b613a7d8261275c565b67ffffffffffffffff811115613a9657613a95612968565b5b613aa08254612ef2565b613aab8282856139e7565b600060209050601f831160018114613ade5760008415613acc578287015190505b613ad68582613a58565b865550613b3e565b601f198416613aec866138c8565b60005b82811015613b1457848901518255600182019150602085019450602081019050613aef565b86831015613b315784890151613b2d601f891682613a3a565b8355505b6001600288020188555050505b505050505050565b6000613b518261280e565b9150613b5c8361280e565b9250828203905081811115613b7457613b73613275565b5b92915050565b600081519050919050565b600082825260208201905092915050565b6000613ba182613b7a565b613bab8185613b85565b9350613bbb818560208601612778565b613bc4816127a2565b840191505092915050565b6000608082019050613be460008301876128a3565b613bf160208301866128a3565b613bfe6040830185612939565b8181036060830152613c108184613b96565b905095945050505050565b600081519050613c2a816126cd565b92915050565b600060208284031215613c4657613c45612697565b5b6000613c5484828501613c1b565b91505092915050565b7f4552433732313a206d696e7420746f20746865207a65726f2061646472657373600082015250565b6000613c93602083612767565b9150613c9e82613c5d565b602082019050919050565b60006020820190508181036000830152613cc281613c86565b9050919050565b7f4552433732313a20746f6b656e20616c7265616479206d696e74656400000000600082015250565b6000613cff601c83612767565b9150613d0a82613cc9565b602082019050919050565b60006020820190508181036000830152613d2e81613cf2565b905091905056fea2646970667358221220f1b61449ae11e0c7be2823718146e86b4353434a9bab17f9be757435438c4b4264736f6c63430008110033",
  "devdoc": {
    "kind": "dev",
    "methods": {
      "approve(address,uint256)": {
        "details": "See {IERC721-approve}."
      },
      "balanceOf(address)": {
        "details": "See {IERC721-balanceOf}."
      },
      "getApproved(uint256)": {
        "details": "See {IERC721-getApproved}."
      },
      "isApprovedForAll(address,address)": {
        "details": "See {IERC721-isApprovedForAll}."
      },
      "name()": {
        "details": "See {IERC721Metadata-name}."
      },
      "owner()": {
        "details": "Returns the address of the current owner."
      },
      "ownerOf(uint256)": {
        "details": "See {IERC721-ownerOf}."
      },
      "renounceOwnership()": {
        "details": "Leaves the contract without owner. It will not be possible to call `onlyOwner` functions anymore. Can only be called by the current owner. NOTE: Renouncing ownership will leave the contract without an owner, thereby removing any functionality that is only available to the owner."
      },
      "safeTransferFrom(address,address,uint256)": {
        "details": "See {IERC721-safeTransferFrom}."
      },
      "safeTransferFrom(address,address,uint256,bytes)": {
        "details": "See {IERC721-safeTransferFrom}."
      },
      "setApprovalForAll(address,bool)": {
        "details": "See {IERC721-setApprovalForAll}."
      },
      "supportsInterface(bytes4)": {
        "details": "See {IERC165-supportsInterface}."
      },
      "symbol()": {
        "details": "See {IERC721Metadata-symbol}."
      },
      "tokenURI(uint256)": {
        "details": "See {IERC721Metadata-tokenURI}."
      },
      "transferFrom(address,address,uint256)": {
        "details": "See {IERC721-transferFrom}."
      },
      "transferOwnership(address)": {
        "details": "Transfers ownership of the contract to a new account (`newOwner`). Can only be called by the current owner."
      }
    },
    "version": 1
  },
  "userdoc": {
    "kind": "user",
    "methods": {},
    "version": 1
  },
  "storageLayout": {
    "storage": [
      {
        "astId": 292,
        "contract": "contracts/RandomIpfsNft.sol:RandomIpfsNft",
        "label": "_name",
        "offset": 0,
        "slot": "0",
        "type": "t_string_storage"
      },
      {
        "astId": 294,
        "contract": "contracts/RandomIpfsNft.sol:RandomIpfsNft",
        "label": "_symbol",
        "offset": 0,
        "slot": "1",
        "type": "t_string_storage"
      },
      {
        "astId": 298,
        "contract": "contracts/RandomIpfsNft.sol:RandomIpfsNft",
        "label": "_owners",
        "offset": 0,
        "slot": "2",
        "type": "t_mapping(t_uint256,t_address)"
      },
      {
        "astId": 302,
        "contract": "contracts/RandomIpfsNft.sol:RandomIpfsNft",
        "label": "_balances",
        "offset": 0,
        "slot": "3",
        "type": "t_mapping(t_address,t_uint256)"
      },
      {
        "astId": 306,
        "contract": "contracts/RandomIpfsNft.sol:RandomIpfsNft",
        "label": "_tokenApprovals",
        "offset": 0,
        "slot": "4",
        "type": "t_mapping(t_uint256,t_address)"
      },
      {
        "astId": 312,
        "contract": "contracts/RandomIpfsNft.sol:RandomIpfsNft",
        "label": "_operatorApprovals",
        "offset": 0,
        "slot": "5",
        "type": "t_mapping(t_address,t_mapping(t_address,t_bool))"
      },
      {
        "astId": 1358,
        "contract": "contracts/RandomIpfsNft.sol:RandomIpfsNft",
        "label": "_tokenURIs",
        "offset": 0,
        "slot": "6",
        "type": "t_mapping(t_uint256,t_string_storage)"
      },
      {
        "astId": 161,
        "contract": "contracts/RandomIpfsNft.sol:RandomIpfsNft",
        "label": "_owner",
        "offset": 0,
        "slot": "7",
        "type": "t_address"
      },
      {
        "astId": 2964,
        "contract": "contracts/RandomIpfsNft.sol:RandomIpfsNft",
        "label": "s_tokenCounter",
        "offset": 0,
        "slot": "8",
        "type": "t_uint256"
      },
      {
        "astId": 2971,
        "contract": "contracts/RandomIpfsNft.sol:RandomIpfsNft",
        "label": "s_requestIdtoSender",
        "offset": 0,
        "slot": "9",
        "type": "t_mapping(t_uint256,t_address)"
      },
      {
        "astId": 2974,
        "contract": "contracts/RandomIpfsNft.sol:RandomIpfsNft",
        "label": "s_dogTokenUris",
        "offset": 0,
        "slot": "10",
        "type": "t_array(t_string_storage)dyn_storage"
      }
    ],
    "types": {
      "t_address": {
        "encoding": "inplace",
        "label": "address",
        "numberOfBytes": "20"
      },
      "t_array(t_string_storage)dyn_storage": {
        "base": "t_string_storage",
        "encoding": "dynamic_array",
        "label": "string[]",
        "numberOfBytes": "32"
      },
      "t_bool": {
        "encoding": "inplace",
        "label": "bool",
        "numberOfBytes": "1"
      },
      "t_mapping(t_address,t_bool)": {
        "encoding": "mapping",
        "key": "t_address",
        "label": "mapping(address => bool)",
        "numberOfBytes": "32",
        "value": "t_bool"
      },
      "t_mapping(t_address,t_mapping(t_address,t_bool))": {
        "encoding": "mapping",
        "key": "t_address",
        "label": "mapping(address => mapping(address => bool))",
        "numberOfBytes": "32",
        "value": "t_mapping(t_address,t_bool)"
      },
      "t_mapping(t_address,t_uint256)": {
        "encoding": "mapping",
        "key": "t_address",
        "label": "mapping(address => uint256)",
        "numberOfBytes": "32",
        "value": "t_uint256"
      },
      "t_mapping(t_uint256,t_address)": {
        "encoding": "mapping",
        "key": "t_uint256",
        "label": "mapping(uint256 => address)",
        "numberOfBytes": "32",
        "value": "t_address"
      },
      "t_mapping(t_uint256,t_string_storage)": {
        "encoding": "mapping",
        "key": "t_uint256",
        "label": "mapping(uint256 => string)",
        "numberOfBytes": "32",
        "value": "t_string_storage"
      },
      "t_string_storage": {
        "encoding": "bytes",
        "label": "string",
        "numberOfBytes": "32"
      },
      "t_uint256": {
        "encoding": "inplace",
        "label": "uint256",
        "numberOfBytes": "32"
      }
    }
  }
}